:10000000FCFF0320D923000091230000912300006E
:100010009123000091230000912300009123000010
:100020009123000091230000912300009123000000
:1000300091230000912300009123000091230000F0
:1000400091230000912300009123000091230000E0
:1000500091230000912300009123000091230000D0
:1000600091230000912300009123000091230000C0
:1000700091230000912300009123000091230000B0
:1000800091230000912300009123000091230000A0
:100090009123000091230000912300009123000090
:1000A0009123000091230000912300009123000080
:1000B0009123000091230000912300009123000070
:1000C0009123000091230000912300009123000060
:1000D0009123000091230000912300009123000050
:1000E0009123000091230000912300009123000040
:1000F0009123000091230000912300009123000030
:10010000912300009123000091230000912300001F
:10011000912300009123000091230000912300000F
:1001200091230000912300009123000091230000FF
:1001300091230000912300009123000091230000EF
:1001400091230000912300009123000091230000DF
:1001500091230000912300009123000091230000CF
:1001600091230000912300009123000091230000BF
:1001700091230000912300009123000091230000AF
:10018000912300009123000091230000912300009F
:10019000912300009123000091230000912300008F
:1001A000912300009123000091230000912300007F
:1001B000912300009123000091230000912300006F
:1001C000912300009123000091230000912300005F
:1001D000912300009123000091230000912300004F
:1001E000912300009123000091230000912300003F
:1001F000912300009123000091230000912300002F
:0802000091230000912300008E
:1023D80000F010F8FFF7DCFF00F01EFBFFF7EEFF40
:1023E80000F0DAFAFFF7BAFFFFF746FFFFF708FF3A
:0423F800FCE7FEE719
:1023140081B01CF8019B0BF8019BBBEB0A0FF8D1B1
:0423240001B070474D
:1023280081B04FF000094FF0000CBDEB0A0F04DC40
:10233800BDEB0B0F01DBD446EA464BF8049BBBEB25
:102348000A0FFAD1BCEB0A0F05DDE246D9F800B056
:0A2358000BF1040BF1E701B0704730
:1023640081B0CDF800E0084801460020FFF70EFFD9
:1023740042F280512020FFF721FFFFF7FBFEDDF83A
:0C23840000E001B0704700BF4C100000EA
:1021900081B0CDF800E009E00846FFF7EBFE0AE069
:1021A0000846FFF7F7FE06E0012004E00028F3D020
:0E21B0000128F5D0F8E7DDF800E001B0704737
:101F740081B0CDF800E0016808460449FFF704FD8C
:101F84000020DDF800E001B0704700BFC02700006A
:10198C0081B0CDF800E00A4601460348FFF790FC11
:0C199C00DDF800E001B0704700000240E0
:1012BC0083B0CDF800E001920A46014601985C4BE0
:1012CC00994216D100245B4B1C60012464B25A4B2A
:1012DC001C605A4C5A4B1C605A4C5B4B1C605B4C50
:1012EC005B4B1C605B4C5C4B1C605C4C5C4B1C603B
:1012FC0065E15C4B994216D100245B4B1C600124C8
:10130C0064B25A4B1C605A4C4D4B1C60594C4E4BA2
:10131C001C60594C4E4B1C60584C4F4B1C60584C2D
:10132C004F4B1C604BE1574B994216D10024564B46
:10133C001C60012464B2554B1C60554C404B1C6026
:10134C00544C414B1C60544C414B1C60534C424B15
:10135C001C60534C424B1C6031E1524B994216D1EC
:10136C000024514B1C60012464B2504B1C60504C47
:10137C00334B1C604F4C344B1C604F4C344B1C603B
:10138C004E4C354B1C604E4C354B1C6017E14D4B95
:10139C00994216D100244C4B1C60012464B24B4B77
:1013AC001C604B4C264B1C604A4C274B1C604A4C17
:1013BC00274B1C60494C284B1C60494C284B1C602B
:1013CC00FDE0484B994216D10024474B1C60012488
:1013DC0064B2464B1C60464C194B1C60454C1A4B76
:1013EC001C60454C1A4B1C60444C1B4B1C60444C01
:1013FC001B4B1C60E3E0434B994216D10024424B3B
:10140C001C60012464B2414B1C60414C0C4B1C60B1
:10141C00404C0D4B1C60404C0D4B1C603F4C0E4B1C
:10142C001C603F4C0E4B1C60C9E03E4B99427BE06C
:10143C00000002407000002000C4FC43FFFFFFFFCF
:10144C00100100206D11000014010020B50C0000EB
:10145C0018010020C91100001C010020FFFFFFFF34
:10146C0020010020001002407400002004C4FC4342
:10147C00FFFFFFFF89110000A50F00008917000076
:10148C00FFFFFFFF002002407800002008C4FC434F
:10149C00FFFFFFFF51110000DD0F00002D170000B2
:1014AC00FFFFFFFF003002407C0000200CC4FC4317
:1014BC00FFFFFFFF350F0000151000006D17000037
:1014CC00FFFFFFFF00000C408000002010C4FC4315
:1014DC00FFFFFFFF190F0000F90F0000D1160000ED
:1014EC00FFFFFFFF00100C408400002014C4FC43DD
:1014FC00FFFFFFFF510F0000C10F0000111700008C
:10150C00FFFFFFFF00200C408800002018C4FC43A4
:10151C00FFFFFFFF890F000031100000B51600001F
:10152C00FFFFFFFF00300C4016D10024414B1C6024
:10153C00012464B2404B1C60404C414B1C60414C3C
:10154C00414B1C60414C424B1C60424C424B1C605A
:10155C00424C434B1C6032E0424B994216D1002462
:10156C00414B1C60012464B2404B1C60404C344B1A
:10157C001C60404C344B1C603F4C354B1C603F4C4A
:10158C00354B1C603E4C364B1C6018E03D4B994271
:10159C0015D100243C4B1C60012464B23B4B1C60F5
:1015AC003B4C274B1C603B4C274B1C603A4C284B4C
:1015BC001C603A4C284B1C60394C294B1C60019226
:1015CC000291FFF74BFD0299019A01F220041023BE
:1015DC002360344B9A4207D106260D1D01242B683B
:1015EC0064F304132B6006E014260D1D00242B68F5
:1015FC0064F304132B60FFF773FB40F2E83300FB3A
:10160C0003F506FB02F4B5FBF4F318466343EB1A3F
:10161C000BB9401EFFE77F2801D97F20FFE7012887
:10162C0001D20120FFE701F20C031860DDF800E0A5
:10163C0003B070478C0000201CC4FC43FFFFFFFF6D
:10164C00100100206D0F0000140100201911000082
:10165C0018010020A11200001C010020FFFFFFFF59
:10166C002001002000800B409000002020C4FC438F
:10167C00FFFFFFFFFD0E0000351100006912000096
:10168C00FFFFFFFF00900B409400002024C4FC439C
:10169C00FFFFFFFFD10C0000FD10000085120000C1
:0816AC00FFFFFFFFD0CF320069
:1010680081B0CDF800E040F2000B82460AF1D801C9
:1010780009788B4539D20C210BFB01F10AEB0101F0
:101088008C460CF108010978A9B90CF10801097816
:10109800CCB20CF1060109888BB20CF10401097875
:1010A800CAB2DCF800100846D1B2002210B4FFF72B
:1010B8003DFB01B014E00CF108010978CCB20CF149
:1010C800060109888BB20CF104010978CAB2DCF870
:1010D80000100846D1B20F2210B4FFF727FB01B069
:1010E8000BF1010B5FFA8BFBC0E7DDF800E001B004
:0210F80070473F
:1007340082B0CDF800E05FFA81F8D5B29FB29DF89F
:100744000830F54C00EA0404A1462046FFF7D8FD22
:10075400F24CA54208D109F580666FEA0805EDB2AE
:1007640034682C40346008E0ED4CA54205D109F50D
:1007740080652C6844EA08042C6040F2010407EA0E
:100784000404A4B234B109F5A2652C6844EA08044F
:100794002C6007E009F5A2666FEA0805EDB234683B
:1007A4002C40346040F2020407EA0404A4B234B1D9
:1007B40009F214552C6844EA08042C6007E009F295
:1007C40014566FEA0805EDB234682C40346040F2E8
:1007D400080407EA0404A4B234B109F20C552C68E5
:1007E40044EA08042C6007E009F20C566FEA080595
:1007F400EDB234682C40346040F2100407EA04047B
:10080400A4B234B109F5A0652C6844EA08042C604C
:1008140007E009F5A0666FEA0805EDB234682C40DC
:10082400346040F2200407EA0404A4B234B109F2AB
:1008340004552C6844EA08042C6007E009F20456C5
:100844006FEA0805EDB234682C40346040F240048D
:1008540007EA0404A4B234B109F5A1652C6844EA9A
:1008640008042C6007E009F5A1666FEA0805EDB2FB
:1008740034682C40346041F2000407EA0404A4B252
:10088400012C13D042F2000407EA0404A4B2012CA0
:100894000CD044F2000407EA0404A4B2012C05D0ED
:1008A400DEB24B46B8B25FFA88F53CE00020002681
:1008B400DAB2BBB207465FFA88F04946082E13D273
:1008C40020FA06F4E4B204F00104E4B24CB1750079
:1008D4002DB2032424B2AC4024B247EA04052F46C7
:1008E400FFE7761CF6B2E9E701F6C476FD43346807
:1008F4002C40346001F23C56C543EDB234682C40C0
:10090400346001F5A166C543EDB234682C4034600F
:1009140001F20456C543EDB234682C403460C5B2CC
:1009240098B20B46D6B2002141F2000400EA040456
:10093400A4B23CB300220F46E9B2082A13D221FA2A
:1009440002F4E4B204F00104E4B24CB155002DB257
:10095400012424B2AC4024B247EA04052F46FFE741
:10096400521CD2B2E9E703F6C4752C683C432C60F0
:1009740003F5A1652C680C432C603D461F4683B2E9
:10098400C8B203E01F4683B2E8B20D4642F2000447
:1009940003EA0404A4B26CB30022A8463946082A28
:1009A40013D220FA02F4E4B204F00104E4B24CB12C
:1009B40055002DB2032424B2AC4024B248EA040505
:1009C400A846FFE7521CD2B2E9E701F6C4752C68C9
:1009D40044EA08042C6001F23C552C6804432C6062
:1009E40001F5A1652C6804432C60F7B20E46C2B22F
:1009F40098B205E00197C2B298B2F7B2A846019E38
:100A040044F2000400EA0404A4B284B30023D1B283
:100A1400082B14D221FA03F4E4B204F00104E4B282
:100A240054B15D002DB2032424B2AC4024B248EA90
:100A3400040422469046FFE75B1CDBB2E8E706F6B7
:100A4400C4752C6844EA08042C6006F23C552C68F2
:100A54000C432C6006F5A1652C680C432C6006F24F
:100A640004552C680C432C60FBB2324602E0D1B230
:100A74003246FBB240F2800400EA0404A4B274B12A
:100A840040F2400400EA0404A4B22CB102F5A365C8
:100A94002C680C432C6001E00120FAE006E002F52A
:100AA400A366CD43EDB234682C40346040F20014A8
:100AB40000EA0404A4B22CB102F21C552C680C43C5
:100AC4002C6006E002F21C56CD43EDB234682C4093
:100AD400346040F2002400EA0404A4B2002C3AD0AA
:100AE400104CA24240F2000500D001250E4CA24257
:100AF40040F2000400D0012425400C4CA24240F2F4
:100B0400000400D001242540094CA24240F2000414
:100B140000D0012425400DE000F0FFFF000000009C
:100B24000100000000C0054000B0054000900540F1
:100B340000100640594CA24240F2000400D00124A7
:100B440005EA04040CB10120A3E002F5A5652C68B4
:100B54000C432C602AE0524CA24240F2000500D122
:100B64000125504CA24240F2000400D10124254347
:100B74004D4CA24240F2000400D1012425434B4CC9
:100B8400A24240F2000400D101242543434CA24276
:100B940040F2000400D1012445EA040434B102F512
:100BA400A566CD43EDB234682C40346040F60004B1
:100BB40000EA0404A4B22CB102F5A6652C680C4327
:100BC4002C6006E002F5A666CD43EDB234682C40F5
:100BD400346040F2004400EA0404A4B22CB102F5EB
:100BE40084652C680C432C6006E002F58466CD43D2
:100BF400EDB234682C4034600BB9002049E00F2B6F
:100C040001D9012045E0002700208DF80430C3B24B
:100C140010469DF80420082B12D221FA03F4E4B202
:100C240004F00104E4B244B19D002DB24FF00F046E
:100C3400AC4047EA04052F46FFE75B1CDBB2EAE75A
:100C440000F22C56FD4334682C4034600026002307
:100C54008DF80430CBB29DF80410082913D223FA7E
:100C640001F4E4B204F00104E4B24CB1D5B28C0056
:100C740024B205FA04F446EA040425462E46FFE7A6
:100C8400491CC9B2E9E700F22C552C6834432C60A6
:100C94000020DDF800E002B0704700BF00500640BD
:100CA40000C0054000B0054000900540001006401B
:1003040081B0664900EA010108467DE06449096854
:1003140041F0010262490A60BEE06149096841F0A6
:1003240002025F490A60B7E05D49096841F00402CE
:100334005B490A60B0E05A49096841F0080258492B
:100344000A60A9E05649096841F0100254490A605C
:10035400A2E05349096841F0200251490A609BE038
:100364004F49096841F040024D490A6094E04C4904
:10037400096841F080024A490A608DE048490968E9
:1003840041F4807246490A6086E04549096841F4AF
:10039400007243490A607FE04149096841F4806280
:1003A4003F490A6078E03E49096841F400623C49EB
:1003B4000A6071E03A49096841F4805238490A6098
:1003C4006AE03749096841F4005235490A6063E03C
:1003D4003349096841F4804231490A605CE030499C
:1003E400096841F400422E490A6055E02C49096825
:1003F40041F480322A490A604EE02949096841F4EF
:10040400003227490A6047E0264988423FF47EAF1C
:10041400254988423FF481AF244988423FF484AFA0
:10042400234988423FF487AF224988423FF48AAF88
:10043400214988423FF48DAF204988423FF490AF70
:100444001F4988423FF493AF1E4988423FF496AF58
:100454001D4988423FF499AF1C4988423FF49CAF40
:100464001B4988423FF49FAF1A4988423FF4A2AF28
:10047400194988423FF4A5AF184988423FF4A8AF10
:10048400174988423FF4ABAF164988423FF4AEAFF8
:10049400154988423FF4B1AF01B0704700F0FFFF47
:1004A40008E60F40008005400090054000A005408C
:1004B40000B0054000C0054000D0054000E0054004
:1004C40000F00540000006400010064000200640F1
:1004D40000300640004006400050064000600640E0
:0C04E400007006400080064000900640BA
:0C0CEC0001480068704700BFE4000020D1
:101F940081B0CDF800E0016808460449FFF7F4FC7D
:101FA4000020DDF800E001B0704700BFC02700004A
:1021C00081B0CDF800E011E00846FFF75DFE16E0B3
:1021D0000846FFF76BFE12E00846FFF731FE0EE0FF
:1021E0000846FFF73FFE0AE0012008E00028EBD098
:1021F0000128EDD02028EFD03028F1D0F4E7DDF829
:0622000000E001B0704790
:101E880081B0CDF800E0FFF799FD044A04490A60E3
:101E98000020DDF800E001B0704700BF1D1C000005
:041EA800D400002042
:1019C40082B0CDF800E00346214A22490A60224A47
:1019D40022490A60224A23490A60234A23490A60A9
:1019E40001932348FFF73EFB019B012252B2214998
:1019F4000A6000BF00BF00BFFFF7D2FBFFF774F916
:101A040040F2E83100FB01F210461901914205D978
:101A1400012252B218490A605A0804E0002252B264
:101A240015490A601A46C100B1FBF2F1491C4B0882
:101A34009A0912490A6003F03F0211490A606022C0
:101A440010490A60FFF7CCFBDDF800E002B07047F4
:101A54001D1C000024010020FFFFFFFF28010020BF
:101A6400FFFFFFFF2C010020FFFFFFFF30010020DC
:101A74000826000014C3FC4314062242241001402B
:081A8400281001402C10014064
:1011A40081B0002149B20448016004480160044848
:1011B400016001B0704700BF0006224220062242AF
:0411C4002406224299
:1011E40081B0012149B20448016004480160044807
:1011F400016001B0704700BF00062242200622426F
:041204002406224258
:101EAC0081B0CDF800E0FFF74FFE044A04490A6008
:101EBC000020DDF800E001B0704700BFA919000058
:041ECC00D40000201E
:101B540082B0CDF800E00346214A22490A60224AB5
:101B640022490A60224A23490A60234A23490A6017
:101B740001932348FFF776FA019B012252B22149CF
:101B84000A6000BF00BF00BFFFF74EFBFFF7ACF8D1
:101B940040F2E83100FB01F210461901914205D9E7
:101BA400012252B218490A605A0804E0002252B2D3
:101BB40015490A601A46C100B1FBF2F1491C4B08F1
:101BC4009A0912490A6003F03F0211490A6060222F
:101BD40010490A60FFF716FBDDF800E002B0704719
:101BE400A919000024010020FFFFFFFF28010020A5
:101BF400FFFFFFFF2C010020FFFFFFFF300100204B
:101C04002C2500001CC3FC4314062642243001404A
:081C1400283001402C30014092
:10122C0081B0002149B204480160044801600448BF
:10123C00016001B0704700BF00062642200626421E
:04124C00240626420C
:1012080081B0012149B204480160044801600448E2
:10121800016001B0704700BF000626422006264242
:041228002406264230
:101E400081B0CDF800E0FFF721FE044A04490A60A2
:101E50000020DDF800E001B0704700BFE918000085
:041E6000D40000208A
:101A8C0082B0CDF800E00346214A22490A60224A7E
:101A9C0022490A60224A23490A60234A23490A60E0
:101AAC0001932348FFF7DAFA019B012252B2214934
:101ABC000A6000BF00BF00BFFFF740FEFFF710F940
:101ACC0040F2E83100FB01F210461901914205D9B0
:101ADC00012252B218490A605A0804E0002252B29C
:101AEC0015490A601A46C100B1FBF2F1491C4B08BA
:101AFC009A0912490A6003F03F0211490A606022F8
:101B0C0010490A60FFF7ECFDDDF800E002B0704709
:101B1C00E918000024010020FFFFFFFF280100202E
:101B2C00FFFFFFFF2C010020FFFFFFFF3001002013
:101B3C00E426000008C3FC4314061C4224E00040C9
:081B4C0028E000402CE00040FD
:1017480081B0002149B2044801600448016004489E
:10175800016001B0704700BF00061C4220061C4211
:0417680024061C42F5
:1016EC0081B0012149B204480160044801600448FA
:1016FC00016001B0704700BF00061C4220061C426E
:04170C0024061C4251
:101E640081B0CDF800E0FFF773FE044A04490A602C
:101E74000020DDF800E001B0704700BFA9190000A0
:041E8400D400002066
:1021780040F6FE07C0F23D077F1EFDD100BF00BF3D
:0821880000BF00BF00BF70475B
:1022800081B0CDF800E0582219491A48FFF7A8FE9E
:1022900019480221FFF724FFFFF75AFF174908806A
:1022A00017480121FFF71CFF144800881549FFF764
:1022B000A9FE02211348FFF713FFFFF77BFE124927
:1022C000088012480121FFF70BFF0F4800880D49D5
:1022D000FFF798FE02210B48FFF702FF0C4802218E
:1022E000FFF7FEFEFFF7F0FEDDF800E001B07047FB
:1022F00094290000342900000000002098000020EC
:102300001D0000209A000020CC00002029000020A1
:042310003600002073
:101FE00081B0CDF800E00446054B1A700846FFF7B3
:101FF00071FF2046FFF76CFFDDF800E001B070478D
:04200000D2000020EA
:101ED400026806490A60011D0A6805490A6000F2A1
:101EE40008010A6803490A60704700BFD80000204F
:081EF400DC000020E0000020EA
:021ED000704759
:1020E00083B0CDF800E0024610460D228DF808209E
:1020F0000A228DF809201FE0FFF72CFF23E0027869
:102100002AB10190FFF726FF0198401CF7E71AE07B
:1021100002782AB10190FFF71DFF0198401CF7E7F4
:1021200002AA1046FFF716FF0DF109021046FFF74D
:1021300011FF08E0062007E00029DDD00129DED0EC
:102140000229E5D0F6E70020DDF800E003B0704793
:101F540081B0CDF800E00178CCB2A0B2034C246883
:101F6400A0470020DDF800E001B07047D400002055
:1019540081B00449096801B1FBE70349086001B09B
:0C196400704700BF1403184200C0004090
:1019700081B00449096801B1FBE70349086001B07F
:0C198000704700BF14031A4200D0004062
:1018E80081B00449096801B1FBE70349086001B008
:0C18F800704700BF14031C4200E00040D9
:1019040081B00449096801B1FBE70349086001B0EB
:0C191400704700BF14031E4200F00040AA
:101C380081B00449096801B1FBE70349086001B0B4
:0C1C4800704700BF140320420000014060
:101C1C0081B00449096801B1FBE70349086001B0D0
:0C1C2C00704700BF14032242001001406A
:101D780081B00449096801B1FBE70349086001B073
:0C1D8800704700BF1403244200200140FB
:1019A80081B00449096801B1FBE70349086001B047
:0C19B800704700BF1403264200300140BD
:1021500083B0CDF800E001A8FFF7D0FEFFF778F8D4
:1021600001AA1078010289B2501C007841EA0000EF
:08217000DDF800E003B0704748
:101EFC0083B0CDF800E0029001AA20211170521C91
:101F0C000821117003212020FFF704FDFFF79AF937
:101F1C00FFF742FC01AA0B4909780123C8B211460C
:101F2C000222FFF743FCFFF78DF9064909780023DD
:101F3C000622C8B20299FFF787FEDDF800E003B075
:081F4C00704700BFD200002025
:1019200082B0CDF800E001AA1070521C1170FFF7D0
:1019300039FF01AB064A127819460023D0B20222C1
:10194000FFF73AFFFFF784FCDDF800E002B07047D4
:04195000D2000020A1
:1017A40040F2000212B201210148017010B27047E8
:0417B4006F000020A2
:1017B80085B0CDF800E0ADF80C200A468DF8103061
:1017C80040F20004ADF808401146424C247854B168
:1017D80001910021404C2468A0470199FFF734FC8F
:1017E80000253C4C2570BDF80C40012C0DD10C781F
:1017F8000721E0B2394C2468A047BDF908400443EA
:10180800ADF80840FFF720FC57E0BDF80C40022C6B
:101818001CD10C7801910321E0B2304C2468A04718
:101828000199BDF908400443ADF808404C1C204616
:10183800FFF70AFC04780521E0B2284C2468A04789
:10184800BDF908400443ADF8084036E00C78019132
:101858000321E0B2214C2468A0470199BDF9084052
:101868000443ADF808404B1CFFF7EEFB1946BDF8E2
:101878000C40641EA4B2ADF80C40012C12D90C78AF
:1018880001910121E0B2154C2468A0470199BDF9E6
:1018980008400443ADF808404C1C2346FFF7D4FB2E
:1018A8001946E4E70C780521E0B20C4C2468A047FF
:1018B800BDF908400443ADF808409DF81040012CDC
:1018C80002D10125034C2570BDF90800DDF800E0C0
:1018D80005B070476F000020D8000020DC00002011
:10116C0081B0CDF800E0CAB2C1B20348FFF7D8F99C
:0C117C00DDF800E001B070470000024008
:10052C0081B04B009BB213439BB2036001B0704788
:1011880081B0CDF800E0CAB2C1B20348FFF7CAF98E
:0C119800DDF800E001B0704700100240DC
:1011500081B0CDF800E0CAB2C1B20348FFF7E6F9AA
:0C116000DDF800E001B070470020024004
:100F340081B0CDF800E0CAB2C1B20348FFF7F4FAB9
:0C0F4400DDF800E001B070470030024012
:100F180081B0CDF800E0CAB2C1B20348FFF702FBC6
:0C0F2800DDF800E001B0704700000C4054
:100F500081B0CDF800E0CAB2C1B20348FFF7E6FAAB
:0C0F6000DDF800E001B0704700100C400C
:100F880081B0CDF800E0CAB2C1B20348FFF7CAFA8F
:0C0F9800DDF800E001B0704700200C40C4
:100F6C0081B0CDF800E0CAB2C1B20348FFF7D8FA9D
:0C0F7C00DDF800E001B0704700300C40D0
:100EFC0081B0CDF800E0CAB2C1B20348FFF710FBD5
:0C0F0C00DDF800E001B0704700800B40F1
:100CD00081B0CDF800E0CAB2C1B20348FFF726FCEC
:0C0CE000DDF800E001B0704700900B4010
:100CB40081B0CDF800E0CAB2C1B20348FFF73CFCF2
:0C0CC400DDF800E001B0704700000240C5
:10053C0082B0CDF800E04FF000045D4B984205D13D
:10054C005C4B1D685C4B1B6801935BE05B4B9842FA
:10055C0006D15B4B1C685B4B1B680193254651E035
:10056C00594B984206D1594B1C68594B1B68019347
:10057C00234646E0574B984206D1574B1C68574BC5
:10058C001B68019323463CE0554B984206D1554BD2
:10059C001C68554B1B680193234632E0534B984221
:1005AC0006D1534B1C68534B1B680193234628E020
:1005BC00514B984206D1514B1C68514B1B6801930F
:1005CC0023461EE04F4B984206D14F4B1C684F4BB5
:1005DC001B680193234614E04D4B984206D14D4BBA
:1005EC001C684D4B1B68019323460AE04B4B984209
:1005FC0006D14B4B1C684B4B1B680193234600E008
:10060C0023461D4600F208031960072A05D0032A69
:10061C0003D004462846D1B215E02E46D1B202468C
:10062C002846131D1C68C4F380135BB148B126B96E
:10063C000420019CA047012036E0731E1C46264670
:10064C00FFE7EEE71446231D1960FFF737FEFFF7AF
:10065C0035FEFFF733FE024625462B1D1C68C4F3FE
:10066C0000034BB138B122B90420019CA0470120F2
:10067C001AE0521EFFE7F0E72B1D1C68C4F3400381
:10068C006BB1012902D0032900D008E02B1D1C6896
:10069C00C4F300131BB92C1D40F2040323602B1D63
:1006AC001C68C4F34003D8B2DDF800E002B0704718
:1006BC000000024070000020E80000200010024002
:1006CC0074000020EC000020002002407800002084
:1006DC00F0000020003002407C000020F4000020DC
:1006EC0000000C4080000020F800002000100C409E
:1006FC0084000020FC00002000200C40880000201A
:10070C000001002000300C408C000020040100206F
:10071C0000800B40900000200801002000900B404E
:08072C00940000200C010020E4
:0C02740001490860704700BF907FB8424D
:0C02680001490860704700BF807FB84269
:0C025C0001490860704700BF807FB2427B
:0C02980001490860704700BF887FB04239
:0C028C0001490860704700BF907FB0423D
:0C02800001490860704700BF947FB04245
:0C02500001490860704700BF807FB64283
:0C02200001490860704700BF907FBA429F
:0C02140001490860704700BF987FB442A9
:0C02080001490860704700BF9C7FB442B1
:0C02440001490860704700BF887FB2428B
:0C02380001490860704700BF8C7FB24293
:0C022C0001490860704700BF947FB84291
:0C04FC0001490860704700BF847FB842CF
:0C04F00001490860704700BF947FB242D1
:0C05200001490860704700BF887FB042AE
:0C05140001490860704700BF907FB042B2
:0C05080001490860704700BF947FB042BA
:0C02F80001490860704700BF847FB642D7
:0C02BC0001490860704700BF987FB642FF
:0C02B00001490860704700BF907FB44215
:0C02A40001490860704700BF947FB4421D
:0C02EC0001490860704700BF887FB242E3
:0C02E00001490860704700BF8C7FB242EB
:1002C80040F22607C0F200077F1EFDD100BF00BF25
:0802D80000BF00BF00BF70472A
:100FA40081B0CDF800E0CAB2C1B20348FFF7C4FA79
:0C0FB400DDF800E001B0704700100240C2
:100FDC0081B0CDF800E0CAB2C1B20348FFF7A8FA5D
:0C0FEC00DDF800E001B07047002002407A
:1010140081B0CDF800E0CAB2C1B20348FFF78CFA40
:0C102400DDF800E001B070470030024031
:100FF80081B0CDF800E0CAB2C1B20348FFF79AFA4F
:0C100800DDF800E001B0704700000C4073
:100FC00081B0CDF800E0CAB2C1B20348FFF7B6FA6B
:0C0FD000DDF800E001B0704700100C409C
:1010300081B0CDF800E0CAB2C1B20348FFF77EFA32
:0C104000DDF800E001B0704700200C401B
:1011180081B0CDF800E0CAB2C1B20348FFF70AFABD
:0C112800DDF800E001B0704700300C4022
:1011340081B0CDF800E0CAB2C1B20348FFF7FCF9B0
:0C114400DDF800E001B0704700800B40B7
:1010FC0081B0CDF800E0CAB2C1B20348FFF718FACC
:0C110C00DDF800E001B0704700900B40DF
:1010500049F63E47C0F200077F1EFDD100BF00BF2A
:0810600000BF00BF00BF704794
:1012500041F67E27C0F206077F1EFDD100BF00BF0A
:0812600000BF00BF00BF704792
:101C540085B0CDF800E0ADF80C200A468DF81030C0
:101C640040F20004ADF8084011463F4C247854B1CA
:101C7400019101213D4C2468A0470199FFF7E6F941
:101C84000025394C2570BDF80C40012C0CD10846B8
:101C94000721374C2468A047BDF908400443ADF838
:101CA4000840FFF7D3F951E0BDF80C40022C19D1DC
:101CB400019108460B212E4C2468A0470199BDF9D7
:101CC40008400443ADF808404C1C2046FFF7BEF919
:101CD4000521274C2468A047BDF908400443ADF80A
:101CE400084033E0019108460B21214C2468A047A9
:101CF4000199BDF908400443ADF808404B1CFFF7B7
:101D0400A5F91946BDF80C40641EA4B2ADF80C4008
:101D1400012C11D9019108460921154C2468A047CA
:101D24000199BDF908400443ADF808404C1C234612
:101D3400FFF78CF91946E5E7084605210C4C2468A1
:101D4400A047BDF908400443ADF808409DF8104091
:101D5400012C02D10125044C2570BDF90800DDF8E1
:101D640000E005B0704700BF6F000020D8000020DD
:041D7400E00000206B
:1011C80081B0CDF800E0CAB201460348FFF790FDB0
:0C11D800DDF800E001B0704700000240AC
:100CF80084B0CDF800E0044603914FF0000302935E
:100D08005E4B9C4206D15E4B1B6802935D4B1B6891
:100D1800019358E05C4B9C4206D15C4B1B680293E4
:100D28005B4B1B6801934EE05A4B9C4206D15A4BD1
:100D38001B680293594B1B68019344E0584B9C4233
:100D480006D1584B1B680293574B1B6801933AE036
:100D5800564B9C4206D1564B1B680293554B1B6859
:100D6800019330E0544B9C4206D1544B1B680293CC
:100D7800534B1B68019326E0524B9C4206D1524BC1
:100D88001B680293514B1B6801931CE0504B9C421B
:100D980006D1504B1B6802934F4B1B68019312E01E
:100DA8004E4B9C4206D14E4B1B6802934D4B1B6821
:100DB800019308E04C4B9C4205D14C4B1B680293B5
:100DC8004B4B1B680193072A03D00B2A01D02046FE
:100DD80017E0029E2046D1B2031D1C68C4F380139D
:100DE80073B1029B4BB126B90320019CA047012097
:100DF80040E0731E1A46134600E033461E46EBE7F2
:100E0800CAB2031D1A60FFF75BFAFFF759FAFFF73A
:100E180057FA029E031D1C68C4F3000363B1029BCA
:100E28003BB126B90320019CA047012022E0711E96
:100E380000E031460E46EDE7031D1C68C4F340038D
:100E480073B1092A02D00B2A00D008E0031D1C68E0
:100E5800C4F300131BB9041D40F20403236004E02B
:100E680000F208031C68039B1C70031D1C68C4F374
:100E78004003D8B2DDF800E004B07047000002403B
:100E880070000020E80000200010024074000020DC
:100E9800EC0000200020024078000020F000002034
:100EA800003002407C000020F400002000000C40CC
:100EB80080000020F800002000100C408400002072
:100EC800FC00002000200C408800002000010020C9
:100ED80000300C408C0000200401002000800B40F2
:100EE800900000200801002000900B409400002092
:040EF8000C010020C9
:1017880081B0CDF800E0CAB201460348FFF7B0FACD
:0C179800DDF800E001B0704700100240D6
:10172C0081B0CDF800E0CAB201460348FFF7DEFAFB
:0C173C00DDF800E001B070470020024022
:10176C0081B0CDF800E0CAB201460348FFF7BEFADB
:0C177C00DDF800E001B0704700300240D2
:1016D00081B0CDF800E0CAB201460348FFF70CFB29
:0C16E000DDF800E001B0704700000C4095
:1017100081B0CDF800E0CAB201460348FFF7ECFA09
:0C172000DDF800E001B0704700100C4044
:1016B40081B0CDF800E0CAB201460348FFF71AFB37
:0C16C400DDF800E001B0704700200C4091
:1012A00081B0CDF800E0CAB201460348FFF724FD43
:0C12B000DDF800E001B0704700300C4099
:1012680081B0CDF800E0CAB201460348FFF740FD5F
:0C127800DDF800E001B0704700800B4082
:1012840081B0CDF800E0CAB201460348FFF732FD51
:0C129400DDF800E001B0704700900B4056
:1020040081B0CDF800E00E46002183B2002805DA45
:102014000121404280B280B28FB201E098B28FB207
:102024003146FFF7E3FE06213446B8B2002908D949
:1020340063184A1E92B2A21812781A70491E89B205
:10204400F4E72022227070B1002081B220464218A9
:102054001278202A02D1491C89B2F8E74A1E92B2AA
:0E20640083182D221A70DDF800E001B07047DD
:101DF00081B00A4681B200208DB21146052805D275
:101E00000B1820221A70401CC0B2F7E70B180022F2
:101E10001A70401EC0B20C180A23B5FBF3F203FB84
:101E2000125292B2303222700A22B5FBF2F292B212
:101E300095B202B902E0401EC0B2ECE701B07047B3
:101FB40083B0CDF800E001A8FFF79EFFFFF746F9D4
:101FC40001AAD01C0078010289B2101D007841EAF0
:0A1FD4000000DDF800E003B07047E4
:1020C80045F6FE17C0F262277F1EFDD100BF00BF94
:0820D80000BF00BF00BF70470C
:1022080081B0CDF800E0FFF747FF15490880154871
:102218000121FFF761FF124800881349FFF7EEFE1E
:1022280002211148FFF758FFFFF720FF0F490880E8
:102238000F480121FFF750FF0C4800880A49FFF7B3
:10224800DDFE02210848FFF747FF0A480221FFF791
:1022580043FFFFF735FFDDF800E001B0704700BF2E
:10226800CE000020460000209A000020D000002068
:08227800510000205F0000206E
:1020A00083B0CDF800E001A8FFF774FEFFF7D0F889
:1020B00001AA1078010289B2501C007841EA0000A0
:0820C000DDF800E003B07047F9
:101D940083B0CDF800E0029001AA20211170521CFA
:101DA4005021117003212020FFF7B8FD00F0E2F963
:101DB400FFF7F6FC01AA0C4909780123C8B21146C1
:101DC4000222FFF7F7FC00F0D5F900F0D3F9064939
:101DD400097800230622C8B20299FFF739FFDDF81B
:0C1DE40000E003B0704700BFD2000020F8
:1020740083B0CDF800E001A8FFF78AFEFFF7E6F889
:1020840001AAD01C0078010289B2101D007841EA2F
:0A2094000000DDF800E003B0704723
:1023FC0081B0CDF800E0344A344B354C354D364E77
:10240C004FF03011354801600021354801606FF004
:10241C00010003EA000133480160C3F3C00018B99E
:10242C00FEF710FFFEF70EFFC3F3000018B10121F9
:10243C0049B22D4801602D48864203D92C492748C2
:10244C00016021E02B48864203D92B4923480160C7
:10245C001AE04CF25030864203D928491F480160DB
:10246C0012E047F23050864203D925491B480160DF
:10247C000AE0B6F57A5F03D922491848016003E0F7
:10248C004FF03011154801601F4804601F4805606B
:10249C006FF0805002EA000111480160012149B23D
:1024AC001B4801601B48016002F0805038B11A488B
:1024BC00006800B9FBE7012149B218480160DDF85A
:1024CC0000E001B0704700BF040030331100000081
:1024DC001800800000000000C0D40100C0E00F40D4
:1024EC00B0E00F407CE00F40800FFC43A086010061
:1024FC00960130008038010055013000D3003000C7
:10250C00B20030007100300060E10F4064E10F4018
:10251C007C16FC437816FC43002DFC437016FC43E0
:1023C40081B002490248016001B07047C0D40100E5
:0423D400E400002001
:0823900081B0FEE701B07047C7
:1023980081B04EF68850CEF20000016841F4700119
:1023A800016000BF00BF00BF00BFF1EE100A40F49B
:0A23B8004000E1EE100A01B070478A
:1029A00000B5DFF814B0DFF814A0DFF814C0FFF7AB
:1029B000B1FC00BD704700BF00000020980000205F
:0429C0009C2800004F
:102A200000B5DFF810B0DFF810A0FFF77DFC00BDA7
:0C2A3000704700BF0000002034010020AF
:04104C00A086010079
:10252C0000A00540100040050100000000A005407F
:10253C002000400501000000000000000000000029
:10254C00000000000000000000000000000000007F
:10255C00000000000000000000000000000000006F
:10256C00000000000000000000000000000000005F
:10257C00000000000000000000000000000000004F
:10258C00000000000000000000000000000000003F
:10259C00000000000000000000000000000000002F
:1025AC00000000000000000000000000000000001F
:1025BC00000000000000000000000000000000000F
:1025CC0000000000000000000000000000000000FF
:1025DC0000000000000000000000000000000000EF
:1025EC0000000000000000000000000000000000DF
:0C25FC00000000000000000002000000D1
:1026080000F00540400040050100000000F00540D2
:1026180080004005010000000000000000000000EC
:1026280000000000000000000000000000000000A2
:102638000000000000000000000000000000000092
:102648000000000000000000000000000000000082
:102658000000000000000000000000000000000072
:102668000000000000000000000000000000000062
:102678000000000000000000000000000000000052
:102688000000000000000000000000000000000042
:102698000000000000000000000000000000000032
:1026A8000000000000000000000000000000000022
:1026B8000000000000000000000000000000000012
:1026C8000000000000000000000000000000000002
:0C26D800000000000000000002000000F4
:1026E40000B00540100040050100000000B00540A6
:1026F4002000400501000000000000000000000070
:1027040000000000000000000000000000000000C5
:1027140000000000000000000000000000000000B5
:1027240000000000000000000000000000000000A5
:102734000000000000000000000000000000000095
:102744000000000000000000000000000000000085
:102754000000000000000000000000000000000075
:102764000000000000000000000000000000000065
:102774000000000000000000000000000000000055
:102784000000000000000000000000000000000045
:102794000000000000000000000000000000000035
:1027A4000000000000000000000000000000000025
:0C27B40000000000000000000200000017
:1027C0000090054004004005020000000090054014
:1027D00008000805020000000000000000000000E2
:1027E00000000000000000000000000000000000E9
:1027F00000000000000000000000000000000000D9
:1028000000000000000000000000000000000000C8
:1028100000000000000000000000000000000000B8
:1028200000000000000000000000000000000000A8
:102830000000000000000000000000000000000098
:102840000000000000000000000000000000000088
:102850000000000000000000000000000000000078
:102860000000000000000000000000000000000068
:102870000000000000000000000000000000000058
:102880000000000000000000000000000000000048
:0C2890000000000000000000020000003A
:10289C00416972205175616C697479203420696EBC
:1028AC00697469616C697A652E2E2E2E00434F3245
:1028BC002076616C75653A200054564F4320766142
:0628CC006C75653A200066
:1028D2002D2D2D2D2D2D2D2D2D2D2D2D2D2D2D0053
:1028E20048322076616C75653A20004574684F481D
:1028F2002076616C75653A20002D2D2D2D2D2D2D04
:0A2902002D2D2D2D2D2D2D2D000063
:04290C0000000000C7
:0429100000000000C3
:0429140000000000BF
:0429180000000000BB
:04291C0000000000B7
:0429200000000000B3
:0429240000000000AF
:0429280000000000AB
:04292C0000000000A7
:0429300000000000A3
:1029340075020000690200005D02000099020000B7
:102944008D020000810200005102000021020000FB
:1029540015020000090200004502000039020000CF
:10296400FFFFFFFFFFFFFFFFFFFFFFFFFFFFFFFF73
:10297400FFFFFFFFFFFFFFFFFFFFFFFFFFFFFFFF63
:10298400FFFFFFFFFFFFFFFFFFFFFFFFFFFFFFFF53
:0C2994006D110000B50C0000C91100001E
:00000001FF
