:02000004000BEF
:10000000FCFF002051170B00F9160B00F9160B002E
:10001000F9160B00F9160B00F9160B00F9160B0078
:10002000F9160B00F9160B00F9160B00F9160B0068
:10003000F9160B00F9160B00F9160B00F9160B0058
:10004000F9160B00F9160B00F9160B00F9160B0048
:10175000FFF7ECFF00F010F8FFF7D2FF00F0A6F95A
:1017600000F05AF800F054F9FFF7A6FFFFF73CFF2E
:08177000FFF7FEFEFCE7FEE7B7
:1016E40081B01CF8019B0BF8019BBBEB0A0FF8D1EE
:0416F40001B070478A
:10167C0081B04FF000094FF0000CBDEB0A0F04DCF9
:10168C00BDEB0B0F01DBD446EA464BF8049BBBEBDE
:10169C000A0FFAD1BCEB0A0F05DDE246D9F800B00F
:0A16AC000BF1040BF1E701B07047E9
:1016B80081B0CDF800E0084801460020FFF7C6FEDB
:1016C80042F280510120FFF7D9FEFFF7B3FEDDF8A3
:0C16D80000E001B0704700BF0C1A0B00CE
:1014540081B0CDF800E009E00846FFF779FE0AE024
:101464000846FFF7ADFE06E0012004E00028F3D0B3
:0E1474000128F5D0F8E7DDF800E001B0704780
:1011540081B0CDF800E0016808460449FFF74CFF70
:101164000020DDF800E001B0704700BF14190B0047
:100FFC0081B0CDF800E083468C4600230D4A136087
:10100C006046FFF755FE0C4C0C4B0D4A194610462A
:10101C002246FFF773FE0CF10C021268D3B2094A98
:10102C00126859461046DAB2FFF7B0FDDDF800E061
:10103C0001B070477C00002001070B00B50A0B00C3
:08104C0095070B00780000205D
:100CBC0081B0CDF800E040F2000A81464FEA8A018B
:100CCC0009EB01010968B1F1FF3F12D009F13401C0
:100CDC004FEA8A03C91809680A4609EB0301096837
:100CEC0008461146FFF7C2FD0AF1010A1FFA8AFAFB
:0A0CFC00E4E7DDF800E001B0704706
:1008780082B0CDF800E000F0FF02130902F00F0289
:100888001446D8B2FFF77AFD012212B2A240ADF8A1
:10089800042000460A469DF80410FFF703FDDDF822
:0608A80000E002B0704701
:1003840081B027E028484DE028484BE0284849E060
:10039400284847E0284845E0284843E0284841E009
:1003A40028483FE028483DE028483BE0284839E019
:1003B400284837E0284835E0284833E0284831E029
:1003C40028482FE028482DE028482BE0284829E039
:1003D400284827E00028D5D00128D5D00228D5D038
:1003E4000328D5D00428D5D00528D5D00628D5D0C3
:1003F4000728D5D00828D5D00928D5D00A28D5D0A3
:100404000B28D5D00C28D5D00D28D5D00E28D5D082
:100414000F28D5D01028D5D01128D5D01228D5D062
:100424001328D5D001B070470010084020100840B0
:10043400401008406010084080100840A010084098
:10044400C0100840E0100840001108402011084086
:10045400401108406011084080110840A011084074
:10046400C0110840E0110840001208402012084062
:0804740040120840601208402C
:1002AC0081B01446314B984203D8314B984200D35D
:1002BC0000E058E02E4BC31A03F01F0303B152E0C9
:1002CC00064600F5A0624FF6FF7304EA03031846D6
:1002DC00284B04EA03031B0C40F20008CFB2014682
:1002EC001846B8F1080F3ED201231BB203FA08F3EB
:1002FC001BB21CB207EA0403A34231D101F44053F0
:10030C008BB14FEA8803F5182C686FF4405304EA5C
:10031C0003032B604FEA8803F51801F440542B6853
:10032C0023432B601CE04FEA8803F5182C68114B13
:10033C0004EA03032B604FEA8803F41823680B4389
:10034C0023604FEA8803D5182C686FF0FF0304EA8A
:10035C0003032B604FEA8803D418236803432360FC
:10036C0008F10108BDE701B0704700BFC01208409A
:08037C00001008400000FFFF23
:100D080081B0044B1860044B1960044B1A6001B0A1
:100D1800704700BFF4000020F8000020FC0000200D
:100B980081B000F2280440F20023236000F2280408
:100BA8000023236080230370041D0123238001296F
:100BB80015D100F22C0444F64F73238000F2400450
:100BC800234B236000F22404224B236000F24404E8
:100BD800214B236000F218044D2323702EE00429D2
:100BE80015D100F22C0440F61773238000F240045C
:100BF8001A4B236000F22404194B236000F24404CA
:100C0800184B236000F218040A23237016E01029F9
:100C180014D100F22C0440F20953238000F240045E
:100C2800114B236000F224040D4B236000F24404AE
:100C38000C4B236000F2180406232370C1230370B1
:100C480000F2280442F4E0531BB2236001B070475D
:100C580006434D0CED01FC01C7C29C4B010A0A0476
:0C0C680050000001C7C29C1401060606E3
:1011C40081B0CDF800E0016808460449FFF714FF38
:1011D4000020DDF800E001B0704700BF14190B00D7
:1014840081B0CDF800E009E00846FFF785FE0AE0E8
:101494000846FFF76DFE06E0012004E00028F3D0C3
:0E14A4000128F5D0F8E7DDF800E001B0704750
:10119C0081B0CDF800E0002300220321FFF762FEAE
:1011AC00034A04490A600020DDF800E001B07047F2
:0811BC008D100B0094000020CF
:100E700084B0CDF800E01FFA82FB1FFA83FC002249
:100E80008DF80420ADF8081003904A48FFF716FFCC
:100E90000398BDF808109DF80420ADF804100290E6
:100EA000FFF7E8FE0298BDF804100025424C2570BB
:100EB0000025424C2570B0F5E13F06D9404CA042D8
:100EC00003D83F4CB4FBF0F308E0B0F5E13F04D8A1
:100ED0004FF4E134B4FBF0F300E00123ADF804106B
:100EE0000290FFF7D3FE0298BDF8041003F0FF0450
:100EF000E5B2344C25701C0A04F07F04E5B2324C94
:100F00002570B0F5E13F06D92F4C247844F08005D8
:100F10002D4C257005E02C4C247804F07F052A4CDC
:100F20002570ADF80410FFF7A5FEBDF804100025EC
:100F3000264C25700BE042F00100C0B20EE042F0FA
:100F40000200C0B20AE042F00300C0B206E001298C
:100F5000F1D00229F3D00329F5D0F4E74FEA8C044D
:100F6000A4B240EA04044FEACB05ADB2E4B22C438C
:100F7000E4B204F07F05154C25700025144C257053
:100F80000025144C2570144D144C2560144D154C3F
:100F90002560154D154C2560154D164C2560164CD9
:100FA000247844F00105144C2570DDF800E004B00D
:100FB000704700BFAC180B00F0270F4001240F4012
:100FC00060E3160000240F4001240F4003240F406B
:100FD00004240F4002240F4005080B0008010020E4
:100FE0008D100B000C010020E9070B001001002000
:0C0FF000CD070B001401002030270F403B
:100C740081B00448007800F07F010248017001B09F
:080C8400704700BF03240F407C
:100C8C0081B00448007840F080010248017001B046
:080C9C00704700BF03240F4064
:1011740081B0CDF800E0002300220321FFF776FEC2
:10118400034A04490A600020DDF800E001B070471A
:081194008D100B0094000020F7
:10143C0046F6FE17C0F2180700BF00BF7F1EFDD195
:08144C0000BF00BF00BF7047A4
:1015E80081B0CDF800E0582219491A48FFF7AAFF40
:1015F80019480221FFF76EFFFFF758FF17490880C7
:1016080017480121FFF766FF144800881549FFF7BE
:10161800A3FE02211348FFF75DFFFFF7F5FE12490D
:10162800088012480121FFF755FF0F4800880D492F
:10163800FFF792FE02210B48FFF74CFF0C480221EE
:10164800FFF748FFFFF7C0FEDDF800E001B0704784
:10165800001A0B007C190B0029000020CE00002086
:10166800460000209A000020D000002052000020F0
:041678005F000020EF
:10154C0081B0CDF800E00446054B1A700846FFF751
:10155C00D7FE2046FFF796FEDDF800E001B070479D
:04156C006F000020EC
:10130C00026806490A60011D0A6805490A6000F274
:10131C0008010A6803490A60704700BFDC0000201E
:08132C00D4000020D8000020CD
:021290007047A5
:1014DC0083B0CDF800E0024610460D228DF80820AE
:1014EC000A228DF809201FE0FFF7FAFE23E00278AC
:1014FC002AB10190FFF7F4FE0198401CF7E71AE0BF
:10150C0002782AB10190FFF7EBFE0198401CF7E737
:10151C0002AA1046FFF7E4FE0DF109021046FFF790
:10152C00DFFE08E0062007E00029DDD00129DED02F
:10153C000229E5D0F6E70020DDF800E003B07047A3
:1012EC0081B0CDF800E00178CCB2E0B2034C2468B8
:1012FC00A0470020DDF800E001B07047940000200A
:10108C0082B0CDF800E08DF80400FFF7EDFD0849C3
:10109C00097801F02001C9B201B9F8E79DF80410F4
:1010AC0001F0FF0203490A70DDF800E002B070475E
:0810BC0005240F4000240F4041
:1010540082B0CDF800E08DF80400FFF71DFD0849CB
:10106400097801F02001C9B201B9F8E79DF804102C
:1010740001F0FF0203490A70DDF800E002B0704796
:0810840005280F4000280F4071
:100A9C0081B00448007800F07F010248017001B079
:080AAC00704700BF03280F4052
:100E6000024A117860F30001117070479013084036
:100E3000024A117860F3451111707047841308401D
:100E2000024A117860F3C3011170704780130840C3
:100E5000024A117860F3041111707047831308403F
:100E4000024A117860F386111170704783130840CD
:10111400024A117860F3041111707047801308407B
:10114400024A117860F30411117070478B13084040
:10113400024A117860F3000111707047831308406C
:1010D400024A117860F34511117070478813084073
:1010C400024A117860F304111170704788130840C4
:1010E400024A117860F300011170704781130840BF
:10110400024A117860F3C7111170704780130840C8
:1010F400024A117860F3410111707047901308405F
:10112400024A117860F3C7111170704784130840A4
:100E1000024A117860F34511117070478E13084033
:100D5800024A117860F30411117070478313084038
:100D6800024A117860F386111170704783130840A6
:100D4800024A117860F3041111707047801308404B
:100D2800024A117860F382011170704780130840FD
:100D3800024A117860F382011170704789130840E4
:100D7800024A117860F345111170704788130840D2
:100DF000024A117860F3041111707047881308409B
:100E0000024A117860F300011170704781130840A5
:100DE000024A117860F3C7111170704780130840F0
:1014B40083B0CDF800E001A8FFF7EAFEFFF7F0FBE8
:1014C40001AA1078010289B2501C007841EA000098
:0814D400DDF800E003B07047F1
:1012940083B0CDF800E0029001AA20211170521C05
:1012A4000821117003212020FFF76CFDFFF7F8FCE3
:1012B400FFF722FC01AA0B4909780023C8B21146A2
:1012C4000222FFF753FCFFF7EBFC064909780123E0
:1012D4000622C8B20299FFF76FFDDDF800E003B003
:0812E400704700BF6F000020FD
:100D880082B0CDF800E001AA1070521C1170FFF774
:100D9800B1FE01AB064A127819460123D0B20222ED
:100DA800FFF7E2FEFFF77AFFDDF800E002B07047D8
:040DB8006F000020A8
:100AFC0082B0CDF800E040F20004ADF80440064CA2
:100B0C002468A047BDF9041041EA000000B2DDF8EA
:0C0B1C0000E002B0704700BFDC000020C9
:1007940081B0CDF800E004480068FFF72FFF002087
:0C07A400DDF800E001B070477800002094
:1006000081B0CDF800E04FF000022449096888422B
:1006100007D123490B6823490A6823490A601A460F
:1006200025E022490968884207D121490B68214900
:100630000A681D490A601A4619E01F49096888427C
:1006400007D11E490B681E490A6817490A601946F6
:100650000CE01C490968884207D11B490B681B49FB
:100660000A6811490A60194600E011460A4618490D
:100670000A60017801F00101C9B259B91449096849
:1006800039B122B90520084C2468A04702E0521E67
:10069000FFE7EEE7DDF800E001B0704778000020EA
:1006A0007C000020E4000020E0000020700000201A
:1006B00080000020E800002074000020840000205A
:1006C000EC000020880000208C000020F0000020BA
:0406D0009000002076
:1007780081B0CDF800E004480068FFF73DFF002095
:0C078800DDF800E001B0704770000020B8
:10075C0081B0CDF800E004480068FFF74BFF0020A3
:0C076C00DDF800E001B0704774000020D0
:1007B00081B0CDF800E004480068FFF721FF002079
:0C07C000DDF800E001B070478800002068
:1008040081B0CDF800E000F033FA0648007800F03B
:100814000100C0B200B9F8E703480078DDF800E051
:0C08240001B0704705240F4000240F4075
:1007E80081B00548007800F00100C0B208B10120CE
:0C07F80000E0002001B0704705240F4015
:1007CC0081B00548007800F04000C0B208B10120AB
:0C07DC0000E0002001B0704705240F4031
:1006D40081B0CDF800E000F0DFF90648007800F0C2
:1006E4000100C0B200B9F8E703480078DDF800E083
:0C06F40001B0704705280F4000280F409F
:1007400081B00548007800F00100C0B208B1012076
:0C07500000E0002001B0704705280F40B9
:1007240081B00548007800F04000C0B208B1012053
:0C07340000E0002001B0704705280F40D5
:100B700082B0CDF800E040F20004ADF80440054C2E
:100B80002468A047BDF90440044320B2DDF800E02A
:080B900002B07047D400002000
:1007000081B0CDF800E0064C246808B413460A46D0
:100710002146FFF7B3FE01B0DDF800E001B07047FD
:04072000780000203D
:10047C0082B0CDF800E0029E40F200074FF000057C
:10048C004E4C2468A14208D14D4CD4F800804D4C00
:10049C0025684D4C2560454628E04C4C2468A1420B
:1004AC0008D14B4CD4F800804A4C2568464C25604A
:1004BC0045461BE0484C2468A14208D1474CD4F86F
:1004CC000080474C2568404C256044460DE0454C67
:1004DC002468A14208D1444CD4F80080434C2568D0
:1004EC00394C2560444600E02C462546404C25609E
:1004FC0001F2080544002C70C5240C70B8B20F46EC
:10050C001D46A84231D23A4CD4F8008033463946C5
:10051C0017462A460C7804F08004E4B27CB1344CC3
:10052C0024685CB1B8F1000F04D10420264C246877
:10053C00A0473FE0A8F10105A846FFE7EAE70C78E1
:10054C0004F00804E4B23CB901F208053C18247824
:10055C002C70401C80B203E001911146019A07E017
:10056C0015463A460F461E46CBE73A4629463346D1
:10057C001F4C2568147804F08004E4B25CB11C4C68
:10058C0024683CB125B904200F4C2468A04711E025
:10059C006D1EFFE7EEE733B1C324147002F20805B9
:1005AC0000242C7001E045241470884201D20120F3
:1005BC0000E00020DDF800E002B070477800002079
:1005CC007C000020E4000020E000002070000020EF
:1005DC0080000020E800002074000020840000202F
:1005EC00EC000020880000208C000020F00000208F
:0405FC00900000204B
:1008300081B0CDF800E0064C246808B413460A469F
:100840002146FFF71BFE01B0DDF800E001B0704764
:040850007000002014
:100A780081B0CDF800E0064C246808B413460A4655
:100A88002146FFF7F7FC01B0DDF800E001B0704740
:040A980074000020C6
:1008540081B0CDF800E0064C246808B413460A467B
:100864002146FFF709FE01B0DDF800E001B0704752
:0408740088000020D8
:100CA40047F2FE07C0F2020700BF00BF7F1EFDD15E
:080CB40000BF00BF00BF704744
:100DBC0082B0CDF800E040F20004ADF80440044CE1
:100DCC002468A047BDF90400DDF800E002B07047CC
:040DDC00D80000201B
:100AB40081B0CDF800E0064C246808B413460A4619
:100AC4002146FFF7F3FE01B0DDF800E001B0704706
:040AD4007800002086
:1008B00082B0CDF800E0029C40F2000601274FF024
:1008C00000055F4C2468A14208D15E4CD4F800803A
:1008D0005D4C25685D4C2560454628E05C4C2468ED
:1008E000A14208D15B4CD4F800805B4C2568574C82
:1008F000256045461BE0594C2468A14208D1584C5C
:10090000D4F80080574C2568504C256044460DE0D3
:10091000554C2468A14208D1544CD4F80080544C62
:1009200025684A4C2560444600E02C462546514C3B
:10093000256001F208054400A4B244F001042C70C3
:100940000846B5B21E46FBB24A4C216801913146B9
:10095000AEB2019D047804F08004E4B25CB1454C71
:1009600024683CB125B90320384C2468A04762E0D4
:100970006D1EFFE7EEE7047804F00804E4B28CB9DA
:10098000B41CA4B28C420DD2951900F2080424784C
:100990002C70751CADB223B1002400239DB2E3B2CC
:1009A000FFE746E0047804F00804E4B2002C38D1F4
:1009B000022902D04024047002E00BB940240470E4
:1009C000951900F2080424782C70741C3BB10023A4
:1009D0000025022901D10E46B6E7A9B200E0A1B276
:1009E000244C2368ADF8041011460246BDF80400FB
:1009F000147804F08004E4B25CB11E4C24683CB16D
:100A000023B90320114C2468A04714E05B1EFFE7C4
:100A1000EEE7C32414700D1802F2080424782C7039
:100A200009E0C3240470951900F2080424782C709E
:100A300001E00E4688E7DDF800E002B0704700BF35
:100A4000780000207C000020E4000020E00000206E
:100A50007000002080000020E800002074000020CA
:100A600084000020EC000020880000208C00002082
:080A7000F000002090000020BE
:100B280081B0CDF800E0064C246808B413460A46A4
:100B38002146FFF7B9FE01B0DDF800E001B07047CB
:040B48007000002019
:100B4C0081B0CDF800E0064C246808B413460A4680
:100B5C002146FFF7A7FE01B0DDF800E001B07047B9
:040B6C0074000020F1
:100AD80081B0CDF800E0064C246808B413460A46F5
:100AE8002146FFF7E1FE01B0DDF800E001B07047F4
:040AF8008800002052
:1013600081B0CDF800E00E46002183B2002805DAF6
:101370000121404280B280B28FB201E098B28FB2B8
:101380003146FFF72FFF06213446B8B2002908D9AD
:1013900063184A1E92B2A21812781A70491E89B2B6
:1013A000F4E72022227070B1002081B2204642185A
:1013B0001278202A02D1491C89B2F8E74A1E92B25B
:0E13C00083182D221A70DDF800E001B070478E
:1011E40081B00A4681B200208DB21146052805D28D
:1011F4000B1820221A70401CC0B2F7E70B1800220B
:101204001A70401EC0B20C180A23B5FBF3F203FB9C
:10121400125292B2303222700A22B5FBF2F292B22A
:1012240095B202B902E0401EC0B2ECE701B07047CB
:1014100083B0CDF800E001A8FFF73CFFFFF742FCE6
:1014200001AAD01C0078010289B2101D007841EA9F
:0A1430000000DDF800E003B0704793
:1013D00042F2FE37C0F2F40700BF00BF7F1EFDD10E
:0813E00000BF00BF00BF704711
:1015700081B0CDF800E0FFF737FF15490880154826
:101580000121FFF7ABFF124800881349FFF7E8FE7F
:1015900002211148FFF7A2FFFFF7CCFE0F49088098
:1015A0000F480121FFF79AFF0C4800880A49FFF70E
:1015B000D7FE02210848FFF791FF0A480221FFF7F2
:1015C0008DFFFFF705FFDDF800E001B0704700BFB9
:1015D00098000020000000209A000020CC0000208D
:0815E0000B000020190000209F
:1013E80083B0CDF800E001A8FFF720FFFFF756FC17
:1013F80001AA1078010289B2501C007841EA000065
:08140800DDF800E003B07047BD
:1012340083B0CDF800E0029001AA20211170521C65
:101244005021117003212020FFF79CFD00F0F4F8D9
:10125400FFF752FC01AA0C4909780023C8B21146D1
:101264000222FFF783FC00F0E7F800F0E5F80649F6
:10127400097801230622C8B20299FFF79DFDDDF823
:0C12840000E003B0704700BF6F000020C6
:1013340083B0CDF800E001A8FFF77AFFFFF7B0FC17
:1013440001AAD01C0078010289B2101D007841EA7C
:0A1354000000DDF800E003B0704770
:1017780081B0CDF800E01F4B1F4A204C204800687C
:1017880040F002011E480160012A08D0032A06D051
:10179800042A04D0102A02D0302A00D002E01948C6
:1017A800026002E0012117480160C4F3C002164933
:1017B800086862F3C3000860C4F38002124908682D
:1017C80062F382000860C4F340020F49086862F3BC
:1017D80041000860C4F300020B49086862F3000086
:1017E8000860FFF727FE09480360DDF800E001B054
:1017F800704700BFE0010000010000000000000089
:1018080008E000E00401084008A40040080108407E
:1018180081B004490448016004490548016001B0E9
:10182800704700BF80BB00000001002000000000DE
:041838000401002087
:0816F80081B0FEE701B070476C
:1017000081B04EF68850CEF20000016841F47001BD
:10171000016000BF00BF00BF00BFF1EE100A40F43F
:0A1720004000E1EE100A01B070472E
:10172C0081B0DFF81000DFF810100860D0F800D09E
:10173C0000F004B800000B0008ED00E000BF01B0A1
:02174C007047E4
:101A100000B5DFF824B0DFF824A0DFF824C0FFF71A
:101A200061FEDFF820B0DFF820A0DFF820C0FFF76C
:101A300059FE00BD704700BF000000206F0000206D
:101A40003C180B007000002094000020DC190B00F3
:101AAC0000B5DFF810B0DFF810A0FFF7E1FD00BDC6
:0C1ABC00704700BF00000020180100204F
:10183C0048322076616C75653A20004574684F48D3
:10184C002076616C75653A20002D2D2D2D2D2D2DBA
:10185C002D2D2D2D2D2D2D2D0041697220517561B1
:10186C006C697479203420696E697469616C697A69
:06187C00652E2E2E2E0049
:0C188200434F322076616C75653A2000FF
:10188E0054564F432076616C75653A20002D2D2DF0
:0D189E002D2D2D2D2D2D2D2D2D2D2D2D0021
:1018AC008500000084000000FFFFFFFF0000000027
:1018BC00000000000000000000000000000000001C
:1018CC00000000000000000000000000000000000C
:1018DC0000000000001000000010000000000000DC
:1018EC0000000000000000000000000000000000EC
:1018FC0000000000000000000000000000000000DC
:08190C000000000000000000D3
:101914001000000007000000FFFFFFFF03000000AD
:1019240000000000000000000000000000000000B3
:1019340000000000000000000000000000000000A3
:101944000000000000100000001000000000000073
:101954000000000000000000000000000000000083
:101964000000000000000000000000000000000073
:0819740000000000000000006B
:10197C00610E0B00310E0B00210E0B00510E0B00F3
:10198C00410E0B0015110B0045110B0035110B000E
:10199C00D5100B00C5100B00E5100B0005110B004A
:1019AC00FFFFFFFFFFFFFFFFFFFFFFFFFFFFFFFF3B
:1019BC00FFFFFFFFFFFFFFFFFFFFFFFFFFFFFFFF2B
:1019CC00FFFFFFFFFFFFFFFFFFFFFFFFFFFFFFFF1B
:0419DC000044004083
:0419E000004800407B
:0419E400004000407F
:0419E80000000000FB
:0419EC0000000000F7
:0419F00000000000F3
:0419F400004C004063
:0419F80000000000EB
:0419FC0000000000E7
:0C1A000095070B0001070B00B50A0B0056
:041A0C0001000000D5
:00000001FF
