:10000000FCFF0020611E0000191E0000191E0000E8
:10001000191E0000191E0000191E0000191E000004
:10002000191E0000191E0000191E0000191E0000F4
:10003000191E0000191E0000191E0000191E0000E4
:10004000191E0000191E0000191E0000191E0000D4
:10005000191E0000191E0000191E0000191E0000C4
:10006000191E0000191E0000191E0000191E0000B4
:10007000191E0000191E0000191E0000191E0000A4
:10008000191E0000191E0000191E0000191E000094
:10009000191E0000191E0000191E0000191E000084
:1000A000191E0000191E0000191E0000191E000074
:1000B000191E0000191E0000191E0000191E000064
:1000C000191E0000191E0000191E0000191E000054
:1000D000191E0000191E0000191E0000191E000044
:1000E000191E0000191E0000191E0000191E000034
:1000F000191E0000191E0000191E0000191E000024
:101E600000F010F8FFF7DCFF00F062FBFFF7EEFF79
:101E700000F01EFBFFF766FFFFF784FFFFF7FAFE97
:041E8000FCE7FEE796
:101D700081B01CF8019B0BF8019BBBEB0A0FF8D15B
:041D800001B07047F7
:101D080081B04FF000094FF0000CBDEB0A0F04DC66
:101D1800BDEB0B0F01DBD446EA464BF8049BBBEB4B
:101D28000A0FFAD1BCEB0A0F05DDE246D9F800B07C
:0A1D38000BF1040BF1E701B0704756
:101D440081B0CDF800E0084801460020FFF7EAFE24
:101D540042F280510120FFF7FDFEFFF71FFFDDF87F
:0C1D640000E001B0704700BF081B000049
:101B280081B0CDF800E009E00846FFF751FF0AE070
:101B38000846FFF7D1FE06E0012004E00028F3D0B4
:0E1B48000128F5D0F8E7DDF800E001B07047A5
:1019D80081B0CDF800E0011D0A680168084611468B
:1019E800034AFFF797FE0020DDF800E001B07047DA
:0419F8005C2200006D
:10171C0081B0CDF800E013460A4601460348FFF7B6
:10172C00EDFEDDF800E001B0704700BF0024004082
:1015080087B0CDF800E08446059106921846FFF7AB
:1015180073FD6046FFF7BAFD06996046FFF7D2FBF8
:10152800BCF8005040F6017445EA0404ACF80040E9
:1015380001AC2046FFF7ECFB069C402C05D1059D2D
:10154800019CB4FBF5F4A0B209E0069C802C05D1FF
:10155800059D049CB4FBF5F4A0B200E000200CF15A
:10156800060420801D4CA44506D11D4D1D4C256048
:101578001D4D1E4C25601CE01D4CA44506D11D4D7B
:10158800184C25601C4D194C256012E01B4CA445D5
:1015980006D11B4D134C25601A4D144C256008E0EC
:1015A800194CA44505D1194D0E4C2560184D0F4C0A
:1015B800256040F201016046FFF77CFB6046FFF7BB
:1015C8009FFB03216046FFF789FB02216046FFF776
:1015D8008FFBDDF800E007B0704700BF0020004037
:1015E8009D130000E4000020A5100000E800002082
:1015F800002400403114000061130000002800405E
:101608000D1400003D130000002C0040E9130000F9
:04161800C9100000F5
:100D180082B0CDF800E004462849096801F4E06192
:100D2800090A08462549096801F0E061090E0A46E2
:100D3800214601911146FFF7CDFD019908601F4931
:100D4800096801F07001090908461C49096801F49D
:100D5800E001090D0A4604F2080101911146FFF766
:100D6800B9FD019908601549096801F07001090980
:100D780008461249096801F0E041090F0A4604F2E1
:100D88000C0101911146FFF7A5FD019908600B4977
:100D9800096801F0070108460849096801F4E021DB
:100DA800090C0A46211D01911146FFF793FD01998F
:100DB8000860DDF800E002B0704700BF0804014099
:1008DC0081B0CDF800E002460846FFF7BBFEC3B27C
:1008EC0071E0424A126802F00102D2B140F20100FA
:1008FC00FFF7BEFE3D4A126802F001028AB13C4A83
:10090C00126802F400422AB14FF4FA3292FBF3F26D
:10091C00104666E048F20002B2FBF3F292B290B2DB
:10092C005FE0344A1268B2FBF3F2104659E02F4AEA
:10093C00126802F00202D2B140F20200FFF798FEF8
:10094C002A4A126802F002028AB1294A126802F499
:10095C0000422AB14FF4FA3292FBF3F2104640E017
:10096C0048F20002B2FBF3F292B290B239E0224AA2
:10097C001268B2FBF3F2104633E0204A1268B2FB65
:10098C00F3F210462DE01A4A126802F400422AB122
:10099C004FF4FA3292FBF3F2104622E048F20002D6
:1009AC00B2FBF3F292B290B21BE0FFF715FEB0FB74
:1009BC00F3F2104615E0124A1268B2FBF3F210463D
:1009CC000FE000200DE0002A3FF48BAF052AAED0DB
:1009DC00012AD2D0022AD6D0032AE6D0042AEAD0A1
:1009EC00EFE7DDF800E001B0704700BF48040140BC
:1009FC0030040140EC000020F000002080000020BA
:040A0C008400002042
:1006600081B0012109B2814009B208B201B07047DE
:10067C0081B0074A07490A600749096841EA000244
:10068C0005490A60012203490A6001B0704700BFA6
:0C069C005A6900000004014050040140B5
:1005E40082B01748006800F4E02114E01548019037
:1005F40023E01548019020E0144801901DE01448C0
:1006040001901AE01348019017E01348019014E098
:100614000020019011E00029E8D0B1F5803FE8D036
:10062400B1F5003FE8D0B1F5403FE8D0B1F5802FF7
:10063400E8D0B1F5A02FE8D0EAE7019802B07047FE
:100644000404014060E31600C0C62D00808D5B00E9
:0C065400001BB70000366E01006CDC02D9
:1010000081B0CDF800E040F2000A814609F1D80134
:1010100009788A453AD20C210AFB01F109EB01015A
:101020008B460BF1080109781F2915D10BF1080136
:101030000978CCB20BF1060109888BB20BF10401DF
:1010400009888AB2DBF80010084691B2002210B479
:10105000FFF7DEFC01B014E00BF108010978CCB217
:101060000BF1060109888BB20BF1040109888AB2E1
:10107000DBF80010084691B2FF2210B4FFF7C8FC5D
:1010800001B00AF1010A5FFA8AFABFE7DDF800E071
:0410900001B07047F4
:100A100083B0CDF800E08DB20146D0B2BDF90C2014
:100A200001F0010414B12F02BFB200E0AFB28F4C4D
:100A30000C1B640965018D4C6419A0468C4CA042C6
:100A400007D108F10406FD43ADB234882C40348050
:100A500007E0884CA04204D108F104052C883C43EF
:100A60002C8040F2010403EA0404A4B23CB108F172
:100A70000606FD43ADB234882C4034800AE040F2D3
:100A8000020403EA0404A4B224B108F106052C8888
:100A90003C432C8040F2040403EA0404A4B23CB1B9
:100AA00008F10806FD43ADB234882C4034800AE0DA
:100AB00040F2080403EA0404A4B224B108F10805D2
:100AC0002C883C432C8040F2100403EA0404A4B2B6
:100AD0003CB108F11806FD43ADB234882C40348097
:100AE0000AE040F2200403EA0404A4B224B108F1AD
:100AF00018052C883C432C8040F2400403EA04048F
:100B0000A4B23CB108F11A06FD43ADB234882C40C2
:100B100034800AE040F2800403EA0404A4B224B161
:100B200008F11A052C883C432C8003F48074A4B28D
:100B30007CB908F10A06FD43ADB234882C403480FC
:100B400008F10C06FD43ADB234882C4034800020FF
:100B500087E01F2A01DD012083E0FFF72FFD002041
:100B6000B9B2C7B24046102F80F07A8021FA07F45C
:100B7000A4B204F00104A4B2002C00F06E8000F2D4
:100B80000A06CD43ADB234882C40348000F20C0606
:100B9000CD43ADB234882C40348003F48064A4B2D9
:100BA0002CB1ADF806100024ADF808400DE003F4B8
:100BB0000064A4B22CB10024ADF80640ADF80810D2
:100BC00003E0ADF80610ADF8081000F20A0635880B
:100BD000BDF8064045EA0404348000F20C0635886E
:100BE000BDF8084045EA04043480234C041B640922
:100BF000ADF80440214CA24218D0BDF80440E400F6
:100C0000A4B265001E4C65197C08E4B264002E197C
:100C100007F00104E4B2E5002DB240F2FF04AC405D
:100C2000A4B2E543ADB234882C403480BDF8044012
:100C3000E400A4B26500124C65197C08E4B26400BB
:100C40002E1907F00104E4B2E5002DB294B204FAC3
:100C500005F5ADB234882C4334807F1CFFB282E7A7
:100C60000020DDF800E003B0704700BF004C0040FA
:100C70000000000001000000004C004000000000E7
:040C800008500040D8
:1005BC0081B042F652510348018002210248018069
:0C05CC0001B07047005000400250004099
:1010940081B00122018862F30001018001B0704730
:100CCC0081B003884FF63F7203EA02020280028869
:080CDC000A43028001B07047D9
:100CBC0081B08BB2028863F30412028001B07047DA
:100D080081B00022018862F30001018001B07047C0
:100CE40081B000F22C04CB439BB222881A402280AC
:040CF40001B0704794
:100CF80081B000F22A031A880A431A8001B07047AB
:1018E00081B0CDF800E0011D0A6801680846114684
:1018F000034AFFF713FF0020DDF800E001B0704756
:041900005C22000065
:101B580081B0CDF800E00DE00846FFF7ABFE10E0DD
:101B68000846FFF795FE0CE00846FFF77FFE08E001
:101B7800012006E00028EFD00128F1D01028F3D08A
:0A1B8800F6E7DDF800E001B0704759
:1018BC0081B0CDF800E0FFF7BDFE044A04490A6090
:1018CC000020DDF800E001B0704700BF09180000EF
:0418DC008800002060
:1016400081B0CDF800E084460B4A0C490A600C4A90
:101650000C490A600C4A0D490A600D4A0D490A609E
:101660000D48FFF7CDFC61460C48FFF7F3FEDDF8AF
:1016700000E001B0704700BF09180000F80000202A
:10168000FFFFFFFFFC000020FFFFFFFF0001002025
:10169000FFFFFFFF04010020C81F000000180040EA
:1014540081B0CDF800E007460C463846FFF764FF3C
:1014640040F280013846FFF78BFF40F20001384616
:10147400FFF74CFF40F200013846FFF76DFE40F2E3
:1014840000013846FFF742FE40F200013846FFF7FC
:101494002BFE40F200013846FFF728FF214638466C
:1014A400FFF774FE3846FFF767FEDDF800E001B091
:0214B40070477F
:0E132C0081B0018841F00101018001B07047DD
:1013840081B003884FF63F7203EA020202800288AA
:081394000A43028001B070471A
:1013100081B031B903884DF6FF7203EA0202028000
:0C13200002E002880A43028001B070471E
:10115C0081B0B1F5006F03D102880A43028005E02B
:10116C0003884FF2FF7203EA0202028001B070475B
:1011100081B019E0038847F6FF7203EA02020280F9
:1011200019E0028842F40042028002880A430280E9
:1011300011E0028842F40042028003884BF6FF72FD
:1011400003EA0202028006E00029E3D0B1F5804FF5
:0A115000E7D00029EDD001B0704790
:1010EC0081B0B1F5807F04D1028842F48072028015
:1010FC0005E003884FF6FF6203EA0202028001B0AA
:02110C0070472A
:1012F00081B0B1F5805F03D102880A43028005E026
:1013000003884EF6FF7203EA0202028001B07047C2
:1011900088B0CDF800E005460E4604AA1046FFF7D9
:1011A000BBFD04AA11462846FFF76CFD00EE900A2D
:1011B000F8EE600A00EE106AB8EE400A80EE800A8F
:1011C000B0EE401A01AA1046FFF76EFADDED010AF3
:1011D000FCEE600A10EE902A92B291B2414A00EE03
:1011E000902A20EE200ABCEE400A10EE100A80B2CF
:1011F00005F2080423884FF6FE7203EA02022280F9
:1012000010292ED905F208031A8842F001021A802B
:10121000B3EE000A81EE000ABCEE400A10EE102A7E
:1012200092B2ADF80820B3EE000AC1EE000AB3EEA8
:10123000000A81EE000ABCEE400A10EE102A92B2BB
:1012400000EE102AB8EE400A70EEC00AB3EE000AB3
:1012500020EE800ABCEE400A10EE102A92B2ADF8E1
:101260000A2020B90022ADF80C20284616E00124FF
:101270002946242C11D263001B4AD21812889042AE
:1012800008D2621E12B25300184AD2181288ADF862
:101290000C2002E0641CE4B2EBE70846831D002248
:1012A0001A80841D2388BDF8082043EA02022280A8
:1012B00000F208031A8802F001021A8000F2080402
:1012C000BDF80C2013029BB2BDF80A20120192B2A5
:1012D00013439BB222881A432280DDF800E008B055
:1012E000704700BF00401C46202400006824000016
:100C840081B0028802F0C00292B2920992B290B28C
:100C94000AB900200EE0012802D10A68104609E0D2
:100CA400022802D0032800D004E001F20C021268EA
:080CB4001046FFE701B0704794
:1006A80082B08DED010A9DED010AB5EEC00AF1EEAA
:1006B80010FA0ADBDDED010AB7EE000AF4EEC00A13
:1006C800F1EE10FA01DA012100E0002189B9DDED2F
:1006D800010ABFEE000AF4EEC00AF1EE10FA07DDD7
:1006E8009DED010AB5EEC00AF1EE10FA00DC00E05B
:1006F80008E04FF0000100EE101A00ED000A9DED31
:10070800010A23E001A90968C90D01F0FF017F3939
:1007180089B2182908D99DED010A00ED000A4FF0A9
:10072800000100EE101A11E09DED010ABDEE400A2D
:1007380010EE101A00EE101AB8EEC00A00ED000A0A
:1007480050ED000A9DED010A30EE600A02B07047D4
:10117C0081B002884FF6FE7102EA0101018001B0D4
:02118C007047AA
:1018980081B0CDF800E0FFF70DFF044A04490A6063
:1018A8000020DDF800E001B0704700BF9D17000080
:0418B8008800002084
:1016BC0081B0CDF800E084460B4A0C490A600C4A14
:1016CC000C490A600C4A0D490A600D4A0D490A6022
:1016DC000D48FFF78FFC61460C48FFF7B5FEDDF8AF
:1016EC0000E001B0704700BF9D170000F80000201B
:1016FC00FFFFFFFFFC000020FFFFFFFF00010020A9
:10170C00FFFFFFFF04010020A42000000014004094
:1018740081B0CDF800E0FFF75FFF044A04490A6035
:101884000020DDF800E001B0704700BFA1160000A1
:0418940088000020A8
:10173C0081B0CDF800E084460B4A0C490A600C4A93
:10174C000C490A600C4A0D490A600D4A0D490A60A1
:10175C000D48FFF74FFC61460C48FFF775FEDDF8AE
:10176C0000E001B0704700BFA1160000F800002097
:10177C00FFFFFFFFFC000020FFFFFFFF0001002028
:10178C00FFFFFFFF0401002080210000001000403B
:101BA00044F67D77C0F2120700BF00BF7F1EFDD153
:081BB00000BF00BF00BF704739
:101D840081B0CDF800E0582219491A48FFF712FF34
:101D940019480221FFF734FFFFF71EFF1749088097
:101DA40017480121FFF72CFF144800881549FFF755
:101DB40031FE02211348FFF723FFFFF78DFE12497E
:101DC400088012480121FFF71BFF0F4800880D49C6
:101DD400FFF720FE02210B48FFF712FF0C480221F7
:101DE400FFF70EFFFFF792FEDDF800E001B0704749
:101DF400E8140000C0230000000000208C00002034
:101E04001D0000208E000020C000002029000020BA
:041E14003600002074
:101BB80081B0CDF800E00446054B1A700846FFF7DF
:101BC80019FF2046FFF722FFDDF800E001B070475B
:041BD800C600002023
:1019FC00026803490A60011D0A6802490A607047BF
:081A0C00CC000020C8000020FE
:021A1400704719
:101C040083B0CDF800E0024610460D228DF808207E
:101C14000A228DF809201FE0FFF7A0FE23E00278D6
:101C24002AB10190FFF79AFE0198401CF7E71AE0E9
:101C340002782AB10190FFF791FE0198401CF7E762
:101C440002AA1046FFF78AFE0DF109021046FFF7BB
:101C540085FE08E0062007E00029DDD00129DED05A
:101C64000229E5D0F6E70020DDF800E003B0704774
:1019600081B0CDF800E00178CCB2A0B2034C24687D
:10197000A0470020DDF800E001B07047880000209B
:1016A00081B0CDF800E081B20348FFF789FEDDF894
:0C16B00000E001B0704700BF00100040D7
:1013C00081B0ADF800100146BDF8000001F20A023C
:1013D000128802F0010292B202B1F7E701F20E02A6
:0613E000108001B070470F
:10179C0081B0CDF800E081B20348FFF70BFEDDF815
:0C17AC0000E001B0704700BF00140040D6
:1018080081B0CDF800E081B20348FFF7D5FDDDF8DF
:0C18180000E001B0704700BF0018004065
:1017EC0081B0CDF800E081B20348FFF7E3FDDDF8EE
:0C17FC0000E001B0704700BF001C00407E
:101BDC0083B0CDF800E001A8FFF7CCFEFFF782FC44
:101BEC0001AA1078010289B2501C007841EA000069
:081BFC00DDF800E003B07047C2
:1019800083B0CDF800E0029001AA20211170521C12
:101990000821117003212020FFF70EFFFFF7A8FD9B
:1019A000FFF79EFD01AA0B4909780023C8B2114632
:1019B0000222FFF781FDFFF79BFD0649097801230D
:1019C0000622C8B20299FFF729FEDDF800E003B055
:0819D000704700BFC6000020B3
:1017B80082B0CDF800E001AA1070521C1170FFF73A
:1017C8008BFE01AB064A127819460123D0B20222D9
:1017D800FFF76EFEFFF788FEDDF800E002B0704705
:0417E800C600002017
:0814E00040F2000000B2704769
:1014B80082B0CDF800E040F20004ADF80440054CDD
:1014C8002468A047BDF90440044320B2DDF800E0D9
:0814D80002B07047CC000020B7
:1010A40081B0CDF800E008B413460A46C1B2044842
:1010B400FFF750FB01B0DDF800E001B0704700BF5E
:0410C40000200040C8
:1007580087B0CDF800E08DF8041001469DF804003C
:1007680005920693079C07944C4CA1420AD14C4D24
:100778002C6803942C46246804944A4C25684A4CF7
:10078800256028E0494CA1420AD1494D2C680394C0
:100798002C4624680494474C2568434C25601AE08D
:1007A800454CA1420AD1454D2C6803942C46246837
:1007B8000494434C25683C4C25600CE0414CA14214
:1007C80009D1414D2C6803942C46246804943F4C6D
:1007D8002568354C256001910291C1B20298FFF756
:1007E8003FFD01993A4C247854B9019108460121FA
:1007F800FFF752FD019908B101204BE00D461FE0BB
:1008080001250C8865F304140C8008460588C5F397
:1008180080046CB1049C54B1039C2CB90720224C71
:100828002468A047012035E0039C641E0394EDE78B
:10083800048844F0020404800025254C25700546F0
:1008480000262A463146069CA14214D2059C64180B
:10085800247801920291E1B21046FFF7C9FD02998E
:10086800019A20B11046FFF7E9FC012012E04C1C68
:1008780026463146E7E7079C012C07D11046FFF7CB
:10088800DDFC002801D0012004E002E00125104C25
:1008980025700020DDF800E007B070470020004018
:1008A80070000020D4000020D00000200024004068
:1008B80074000020D80000200028004078000020A4
:1008C800DC000020002C00407C000020E00000201C
:0408D8006F0000208D
:0C05B00001490870704700BF60880942D4
:0C06700001490870704700BF588809421B
:0C05A40001490870704700BF4088094200
:0C055C0001490870704700BF548009423C
:0C05680001490870704700BF5C80094228
:0C05440001490870704700BF5880094250
:0C05500001490870704700BF7C80094220
:0C058C0001490870704700BF70800942F0
:0C05980001490870704700BF4884094208
:0C05740001490870704700BF4C84094228
:0C05800001490870704700BF74880942F0
:0C05D80001490870704700BF708809429C
:0C05380001490870704700BF6C84094244
:0C02200001490870704700BF7C8809424B
:0C022C0001490870704700BF4888094273
:0C02380001490870704700BF5480094263
:0C02140001490870704700BF5C8009427F
:0C01F00001490870704700BF58800942A8
:0C01FC0001490870704700BF788009427C
:0C02080001490870704700BF7888094267
:0C05140001490870704700BF6880094270
:0C05200001490870704700BF6C80094260
:0C052C0001490870704700BF7488094244
:0C05080001490870704700BF708809426C
:1002680081B000F2140212888A420FD000F21602FE
:1002780012888A420AD000F2180212888A4205D0EF
:1002880000F21A0212888A4200D000E002E000F26E
:080298002002118001B0704743
:1002A00085B0CDF800E0CCB20146464A91420AD171
:1002B000454B1A6803921A4612680492434A13681F
:1002C000434A136028E0434A91420AD1424B1A68DC
:1002D00003921A4612680492404A13683C4A13601B
:1002E0001AE03F4A91420AD13E4B1A6803921A46DD
:1002F000126804923C4A1368354A13600CE03B4A8A
:10030000914209D13A4B1A6803921A461268049234
:10031000384A13682E4A13608DF80440029108464B
:10032000FFF7FAFE02999DF8044008B1012044E06D
:10033000E3B20A8863F304120A800A8842F00202D8
:100340000A80012C1CD1084600F22C021388C3F34A
:1003500040026AB9049A52B1039A2AB906201C4C89
:100360002468A047012028E0039A521E0392EBE77D
:1003700000F22C040023228863F3410222801BE058
:10038000084600F22C021388C3F300026AB9049AEB
:1003900052B1039A2AB906200D4C2468A0470120C7
:1003A0000BE0039A521E0392EBE700F22C040023A9
:1003B000228863F3000222800020DDF800E005B00F
:1003C000704700BF0020004070000020D4000020D3
:1003D000D00000200024004074000020D80000203D
:1003E0000028004078000020DC000020002C0040A5
:0803F0007C000020E000002069
:1001180083B0CDF800E0274988420AD1264A116801
:10012800019111460968029124490A6824490A6024
:1001380028E0244988420AD1234A116801911146CE
:100148000968029121490A681D490A601AE0204994
:1001580088420AD11F4A1168019111460968029123
:100168001D490A6816490A600CE01C49884209D1F1
:100178001B4A1168019111460968029119490A68D8
:100188000F490A6003461846FFF7B6FF68B9029997
:1001980051B1019929B90520094C2468A0470120CB
:1001A80004E00199491E0191EDE70020DDF800E027
:1001B80003B070470020004070000020D4000020E9
:1001C800D00000200024004074000020D800002047
:1001D8000028004078000020DC000020002C0040AF
:0801E8007C000020E000002073
:1001000081B000F208010A88C2F3001181F00101F8
:08011000C9B2C8B201B070478A
:1003F80083B0CDF800E0354A90420AD1344B1A68F0
:1004080001921A4612680292324A1368324A1360FD
:1004180028E0324A90420AD1314B1A6801921A46B2
:10042800126802922F4A13682B4A13601AE02E4A68
:1004380090420AD12D4B1A6801921A46126802920C
:100448002B4A1368244A13600CE02A4A904209D1C7
:10045800294B1A6801921A4612680292274A1368B1
:100468001D4A136000F22C021388C3F3401232B104
:1004780000F22C040023228863F34512228000F244
:100488000E02118000F22C021388C3F340026AB9ED
:10049800029A52B1019A2AB904200F4C2468A04745
:1004A80001200FE0019A521E0192EBE700F22C04A2
:1004B8000023228863F34102228000F22C02138871
:1004C800C3F34010DDF800E003B07047002000409F
:1004D80070000020D4000020D0000020002400403C
:1004E80074000020D8000020002800407800002078
:1004F800DC000020002C00407C000020E0000020F0
:1002440081B0CDF800E00122018862F382010180CF
:10025400FFF760FF08B1012000E00020DDF800E0B6
:0402640001B070472E
:1013600081B0CDF800E008B413460A46C1B2044883
:10137000FFF7F2F901B0DDF800E001B0704700BFFF
:041380000024004005
:10133C0081B0CDF800E008B413460A46C1B20448A7
:10134C00FFF704FA01B0DDF800E001B0704700BF10
:04135C000028004025
:1010C80081B0CDF800E008B413460A46C1B204481E
:1010D800FFF73EFB01B0DDF800E001B0704700BF4C
:0410E800002C004098
:1014F0004DF2BD47C0F2010700BF00BF7F1EFDD106
:0815000000BF00BF00BF7047EF
:10161C0082B0CDF800E040F20004ADF80440044C78
:10162C002468A047BDF90400DDF800E002B0704763
:04163C00C8000020C2
:10139C0081B0CDF800E008B413460A46C1B2044847
:1013AC00FFF70CFD01B0DDF800E001B0704700BFA5
:0413BC0000200040CD
:100DC80087B0CDF800E08DF8041001469DF80400C6
:100DD800079E7B4CA1420AD17A4D2C6805942C467B
:100DE80024680694784C2568784C256028E0784C6F
:100DF800A1420AD1774D2C6805942C4624680694A4
:100E0800754C2568714C25601AE0744CA1420AD1D2
:100E1800734D2C6805942C4624680694714C2568FB
:100E28006A4C25600CE0704CA14209D16F4D2C68CA
:100E380005942C46246806946D4C2568634C2560FF
:100E4800019202910391C1B20398FFF709FA02993E
:100E5800019A684C24787CB9019602930392049114
:100E680008460021FFF718FA0499039A029B019E8D
:100E780000B1A0E0304661E000250C8865F3041459
:100E88000C80012B39D130460D88C5F3800464B13C
:100E9800069C4CB1059C24B907204C4C2468A047FB
:100EA80089E0059C641E0594EEE7069C05940C8871
:100EB80044F002040C80019111461A460346019839
:100EC8000588C5F3400464B1069C4CB1059C24B95F
:100ED80006203E4C2468A0476DE0059C641E0594DE
:100EE800EEE7069C0594048844F00404048001920B
:100EF8000A4601461846019B1DE001930B46304601
:100F080001991D88C5F3800464B1069C4CB1059C09
:100F180024B907202D4C2468A0474CE0059C641E8A
:100F28000594EEE7069C05941C8844F002041C8096
:100F380001930B46019900252E4C25705C1E234613
:100F480001931346019A002A31DB01F22C0425880B
:100F5800C5F3000464B9069C4CB1059C24B9032070
:100F68001A4C2468A04726E0059C641E0594ECE70B
:100F780016E001F20C0424881C705B1C15E00125A6
:100F88000C8865F382040C8001F20C0424881C7020
:100F98005B1C0AE001F20C0424881C705B1C04E052
:100FA800002AE6D0012AEAD0F4E7521ECBE710B9AE
:100FB8000125104C2570DDF800E007B0704700BF30
:100FC8000020004070000020D4000020D000002045
:100FD8000024004074000020D800002000280040B1
:100FE80078000020DC000020002C00407C0000205D
:080FF800E00000206F00002062
:1014300081B0CDF800E008B413460A46C1B20448B2
:10144000FFF7C2FC01B0DDF800E001B0704700BF5B
:041450000024004034
:10140C0081B0CDF800E008B413460A46C1B20448D6
:10141C00FFF7D4FC01B0DDF800E001B0704700BF6D
:04142C000028004054
:1013E80081B0CDF800E008B413460A46C1B20448FB
:1013F800FFF7E6FC01B0DDF800E001B0704700BF80
:04140800002C004074
:101A180081B0CDF800E00E46002183B2002805DA37
:101A28000121404280B280B28FB201E098B28FB2F9
:101A38003146FFF7F3FE06213446B8B2002908D92B
:101A480063184A1E92B2A21812781A70491E89B2F7
:101A5800F4E72022227070B1002081B2204642189B
:101A68001278202A02D1491C89B2F8E74A1E92B29C
:0E1A780083182D221A70DDF800E001B07047CF
:1018240081B00A4681B200208DB21146052805D246
:101834000B1820221A70401CC0B2F7E70B180022C4
:101844001A70401EC0B20C180A23B5FBF3F203FB56
:10185400125292B2303222700A22B5FBF2F292B2E4
:1018640095B202B902E0401EC0B2ECE701B0704785
:101ADC0083B0CDF800E001A8FFF74CFFFFF702FD43
:101AEC0001AAD01C0078010289B2101D007841EACD
:0A1AFC000000DDF800E003B07047C1
:101B100041F6FD27C0F2B70700BF00BF7F1EFDD111
:081B200000BF00BF00BF7047C9
:101C740081B0CDF800E0FFF705FF1549088015484D
:101C84000121FFF7BDFF124800881349FFF7C2FE88
:101C940002211148FFF7B4FFFFF708FF0F4908803E
:101CA4000F480121FFF7ACFF0C4800880A49FFF7F1
:101CB400B1FE02210848FFF7A3FF0A480221FFF7FB
:101CC4009FFFFFF723FFDDF800E001B0704700BF7E
:101CD400C2000020460000208E000020C400002026
:081CE400510000205F00002008
:101A880083B0CDF800E001A8FFF738FFFFF72CFD81
:101A980001AA1078010289B2501C007841EA0000BE
:081AA800DDF800E003B0704717
:1019040083B0CDF800E0029001AA20211170521C8E
:101914005021117003212020FFF74CFF00F03EF905
:10192400FFF7DCFD01AA0C4909780023C8B211466F
:101934000222FFF7BFFD00F031F900F02FF906494C
:10194400097801230622C8B20299FFF765FEDDF883
:0C19540000E003B0704700BFC600002098
:101AB00083B0CDF800E001A8FFF724FFFFF718FD81
:101AC00001AAD01C0078010289B2101D007841EAF9
:0A1AD0000000DDF800E003B07047ED
:101E840083B0CDF800E0374B374C384D384E394FDE
:101E9400394845F680213948018004F007000528B7
:101EA40004D004F07000502800D00BE0012252B29C
:101EB40033480280002149B232480180324802800E
:101EC40032480180802132480160019502961E4605
:101ED40025463A46029B019C2E48006800F4807017
:101EE40000B1F9E72C492D480160019511463246AD
:101EF4001D46019B2748006800F4807000B1F9E793
:101F0400274801602748016027492848016028487C
:101F1400026028480360200D00F0070028B944F04F
:101F24000301254801602A4610E044F4803040F063
:101F34000301214801602A462048006830B1FFF7B8
:101F4400D5FE012149B21E480160F5E7002117487A
:101F5400016042F4B44109480180DDF800E003B0B7
:101F6400704700BF000005003300000003000100BB
:101F7400840000000010000080BB00000C480040FA
:101F84004CA509428CA5094248A5094288A50942E5
:101F9400143004E00400014001005A6900000140CB
:101FA40010100140141001405A690000000401405F
:101FB40004040140080401400C0401400489204247
:041FC400048A204229
:101CF00040F20907C0F2000700BF00BF7F1EFDD100
:081D000000BF00BF00BF7047E7
:101E4C0081B002490248016001B0704780BB0000BC
:041E5C00F40000206E
:081E180081B0FEE701B0704744
:101E200081B04EF68850CEF20000016841F4700196
:101E3000016000BF00BF00BF00BFF1EE100A40F418
:0A1E40004000E1EE100A01B0704707
:1024B00000B5DFF814B0DFF814A0DFF814C0FFF7A0
:1024C00057FC00BD704700BF0000002088000020BE
:0424D00038230000AD
:1025300000B5DFF810B0DFF810A0FFF7E5FB00BD35
:0C254000704700BF0000002008010020D0
:0814E800611300003114000043
:041B0800A0860100B2
:101FC800204C00400400050500000000204C0040A3
:101FD80008000505000000000000000000000000E7
:101FE80000000000000000000000000000000000E9
:101FF80000000000000000000000000000000000D9
:1020080000000000000000000000000000000000C8
:1020180000000000000000000000000000000000B8
:1020280000000000000000000000000000000000A8
:102038000000000000000000000000000000000098
:102048000000000000000000000000000000000088
:102058000000000000000000000000000000000078
:102068000000000000000000000000000000000068
:102078000000000000000000000000000000000058
:102088000000000000000000000000000000000048
:0C2098000000000000000000020000003A
:1020A400004C00400004050500000000004C004006
:1020B400000805050000000000000000000000000A
:1020C400000000000000000000000000000000000C
:1020D40000000000000000000000000000000000FC
:1020E40000000000000000000000000000000000EC
:1020F40000000000000000000000000000000000DC
:1021040000000000000000000000000000000000CB
:1021140000000000000000000000000000000000BB
:1021240000000000000000000000000000000000AB
:10213400000000000000000000000000000000009B
:10214400000000000000000000000000000000008B
:10215400000000000000000000000000000000007B
:10216400000000000000000000000000000000006B
:0C2174000000000000000000020000005D
:10218000004C00400400050500000000004C004029
:10219000080005050000000000000000000000002D
:1021A000000000000000000000000000000000002F
:1021B000000000000000000000000000000000001F
:1021C000000000000000000000000000000000000F
:1021D00000000000000000000000000000000000FF
:1021E00000000000000000000000000000000000EF
:1021F00000000000000000000000000000000000DF
:1022000000000000000000000000000000000000CE
:1022100000000000000000000000000000000000BE
:1022200000000000000000000000000000000000AE
:10223000000000000000000000000000000000009E
:10224000000000000000000000000000000000008E
:0C22500000000000000000000200000080
:10225C00404C00400010000500000000404C0040C5
:10226C00002000050000000000000000000000003D
:10227C000000000000000000000000000000000052
:10228C000000000000000000000000000000000042
:10229C000000000000000000000000000000000032
:1022AC000000000000000000000000000000000022
:1022BC000000000000000000000000000000000012
:1022CC000000000000000000000000000000000002
:1022DC0000000000000000000000000000000000F2
:1022EC0000000000000000000000000000000000E2
:1022FC0000000000000000000000000000000000D2
:10230C0000000000000000000000000000000000C1
:10231C0000000000000000000000000000000000B1
:0C232C00000000000000000002000000A3
:10233800416972205175616C697479203420696E25
:10234800697469616C697A652E2E2E2E00434F32AE
:102358002076616C75653A200054564F43207661AB
:062368006C75653A2000CF
:10236E002D2D2D2D2D2D2D2D2D2D2D2D2D2D2D00BC
:10237E0048322076616C75653A20004574684F4886
:10238E002076616C75653A20002D2D2D2D2D2D2D6D
:0A239E002D2D2D2D2D2D2D2D0000CD
:0423A8000000000031
:0423AC00000000002D
:0423B0000000000029
:0423B4000000000025
:0423B80010270000EA
:0423BC0000366E0178
:1023C000B105000071060000A50500005D050000D4
:1023D0006905000045050000510500008D0500005D
:1023E000990500007505000081050000D905000071
:1023F000FFFFFFFFFFFFFFFFFFFFFFFFFFFFFFFFED
:10240000FFFFFFFFFFFFFFFFFFFFFFFFFFFFFFFFDC
:10241000FFFFFFFFFFFFFFFFFFFFFFFFFFFFFFFFCC
:1024200000001102CB024303E903E404960586068B
:102430006308B008C709B80B070DF70DA90EA30F65
:10244000BE101A118A13531673176E1820190B1A1F
:10245000591BEB1B4F1DB51E441F8D2010217C21E5
:082460002F222C23D223482473
:102468000000010002000400080010002000110014
:10247800210022004400250049004A005200920031
:1024880053005500AA006B00AD00B500B600D60099
:10249800B700BB00DD00ED00EE00BF00DF00EF007D
:0824A800F700FB00FD00FE003F
:00000001FF
