:10000000FCFF02207D20000035200000352000008C
:10001000352000003520000035200000352000008C
:10002000352000003520000035200000352000007C
:10003000352000003520000035200000352000006C
:10004000352000003520000035200000352000005C
:10005000352000003520000035200000352000004C
:10006000352000003520000035200000352000003C
:10007000352000003520000035200000352000002C
:10008000352000003520000035200000352000001C
:10009000352000003520000035200000352000000C
:1000A00035200000352000003520000035200000FC
:1000B00035200000352000003520000035200000EC
:1000C00035200000352000003520000035200000DC
:1000D00035200000352000003520000035200000CC
:1000E00035200000352000003520000035200000BC
:1000F00035200000352000003520000035200000AC
:10010000352000003520000035200000352000009B
:10011000352000003520000035200000352000008B
:10012000352000003520000035200000352000007B
:10013000352000003520000035200000352000006B
:10014000352000003520000035200000352000005B
:10015000352000003520000035200000352000004B
:10016000352000003520000035200000352000003B
:10017000352000003520000035200000352000002B
:10018000352000003520000035200000352000001B
:080190003520000035200000BD
:10207C0081B000F011F8FFF7DBFF00F007FDFFF770
:10208C00EDFF00F0B5FCFFF747FFFFF75BFFFFF735
:06209C0007FFFCE7FEE770
:1020200081B01CF8019B0BF8019BBBEB0A0FF8D1A8
:0420300001B0704744
:101FE40081B04FF000094FF0000CBDEB0A0F04DC88
:101FF400BDEB0B0F01DBD446EA464BF8049BBBEB6D
:102004000A0FFAD1BCEB0A0F05DDE246D9F800B09D
:0A2014000BF1040BF1E701B0704777
:101F240081B0CDF800E0084801460020FFF732FFF9
:101F340042F280510120FFF7F5FEFFF7CFFEDDF8F6
:0C1F440000E001B0704700BFF829000069
:101D980081B0CDF800E00DE00846FFF7A1FE10E0A5
:101DA8000846FFF77DFE0CE00846FFF789FE08E0CD
:101DB800012006E00028EFD00128F1D00228F3D056
:0A1DC800F6E7DDF800E001B0704717
:101AE80081B0CDF800E0016808460449FFF71EFF01
:101AF8000020DDF800E001B0704700BF14290000A5
:1019340081B0CDF800E00A4601460348FFF7BEFD3A
:0C194400DDF800E001B0704700600640D4
:1014C0008AB0CDF800E0504B984210D100244F4B29
:1014D0001C60012464B24E4B1C604E4C4E4B1C6091
:1014E0004E4C4F4B1C604F4C4F4B1C6026E04F4BFB
:1014F000984210D100244E4B1C60012464B24D4B25
:101500001C604D4C444B1C604C4C454B1C604C4C7F
:10151000454B1C6012E04B4B98420FD100244A4BC4
:101520001C60012464B2494B1C60494C3A4B1C605E
:10153000484C3B4B1C60484C3B4B1C60019102905B
:101540001046FFF7CBFD06AB1846FFF757FD029894
:1015500001994FF0FF39002740F200080022022ACB
:1015600037D8B9F1000F34D001231BB203FA02F5CA
:101570002DB20026322E28D2F400384B1B191B1D29
:101580001B6805FB03F4079BB3FBF4F30493994238
:1015900003D9049BCB1A039302E0049B5B1A0393C9
:1015A000039B0593039B4B450BD21746F4002B4B33
:1015B0001B19D3F80080059C059B002B00D105E08A
:1015C00000E04C46761CA146D4E74C46521CA1468E
:1015D000C5E7441CBB0143EA08032370851C0124B2
:1015E0002B7864F3C7132B70851C01242B7864F3CC
:1015F00086132B70851D01242B7864F345132B7003
:10160000DDF800E00AB07047006006407000FF1F80
:101610009806904269110000D800FF1F7114000065
:10162000DC00FF1FC5120000E000FF1F0070064035
:101630007400FF1F9C0690427D10000009140000FA
:10164000E912000000600E407800FF1F180590426C
:1016500095100000E5130000B1110000D025000036
:100FFC0081B0CDF800E00446FFF7AEFE40F2E831D8
:10100C0000FB01F3194909680A0F1849096801F036
:10101C007061090EC8B21549096801F47001090D17
:10102C00CDB21249096801F47021090CCEB2D1B2CB
:10103C00491C09B259430F462360221D411C09B2B9
:10104C00B7FBF1F1116004F20802691C09B2B7FB9D
:10105C00F1F1116004F20C02711C09B2B7FBF1F151
:10106C001160DDF800E001B0704700BF448004401F
:100D640081B00248006801B0704700BFC800FF1F8F
:1010DC0081B0CDF800E040F2000C83464FEA8C0161
:1010EC000BEB01010968B1F1FF3F12D00BF1340198
:1010FC004FEA8C03C91809680A460BEB030109680F
:10110C0008461146FFF758FC0CF1010C1FFA8CFC39
:0A111C00E4E7DDF800E001B07047E1
:1009C40082B0CDF800E080464FEA581202F00702E8
:1009D400914608F01F04A24693010D4AD3184FF024
:1009E4000102A240019218460A460199FFF7DEFF70
:1009F4004FEA0933074AD3184FEA8A029C1808F4CD
:100A0400E06322681A432260DDF800E002B0704718
:080A140000F00F4000900440C7
:1009B00081B0CDF800E0FFF74FFDDDF800E001B0B9
:0209C00070477E
:1004580083B0CDF800E006460C4615463046FFF757
:10046800D3FF40F2FF1306EA030080090026224664
:100478002946202E39D24FF0010303FA06F402EA86
:1004880004031F46A3422ED104031A4B1C19B300C0
:10049800E51801952C68184B04EA03032B60174BE9
:1004A80001EA0304019B1B6843EA0404019B1C60E6
:1004B80001F48033B3F5803F15D08401104B1B192C
:1004C8001433029301F400333BB1FC43029B1B68D5
:1004D80003EA0404029B1C6005E0029B1B6843EAD4
:1004E8000704029B1C60761CC3E7DDF800E003B03C
:1004F800704700BF009004400000FFFFFFFF0000AE
:0405080000F00F40B0
:1004100081B040F2FF1100EA01018909084600F2AB
:1004200009024FF0010101FA02F20449096841EAA8
:10043000020202490A6001B0704700BF38800440E0
:101AA80081B0CDF800E0016808460449FFF73EFF21
:101AB8000020DDF800E001B0704700BF14290000E5
:101AC80081B0CDF800E0016808460449FFF72EFF11
:101AD8000020DDF800E001B0704700BF14290000C5
:101D280081B0CDF800E011E00846FFF775FF16E036
:101D38000846FFF75FFF12E00846FFF737FF0EE09F
:101D48000846FFF745FF0AE0012008E00028EBD02D
:101D58000128EDD00228EFD01028F1D0F4E7DDF803
:061D680000E001B070472D
:101C200081B0CDF800E0FFF767FE044A04490A607E
:101C30000020DDF800E001B0704700BF651800002B
:041C4000B800FF1FCA
:1018F80081B0CDF800E003460A48FFF7BDFE0A4A6A
:1019080040F2000104B402B440F20002194640F269
:1019180000030448FFF756FF02B0DDF800E001B00D
:0C192800704700BF00C00640A828000067
:1016800081B0304988420CD12F4A30490A60304A33
:1016900030490A60304A31490A60314A31490A60AA
:1016A0004EE0314988420CD1304A28490A60304A1C
:1016B00028490A602F4A29490A602F4A29490A60A5
:1016C0003EE02E4988420CD12D4A20490A602D4A1D
:1016D00020490A602C4A21490A602C4A21490A60A3
:1016E0002EE02B4988420CD12A4A18490A602A4A1E
:1016F00018490A60294A19490A60294A19490A60A1
:101700001EE0284988420CD1274A10490A60274A1E
:1017100010490A60264A11490A60264A11490A609E
:101720000EE0254988420BD1244A08490A60244A20
:1017300008490A60234A09490A60234A09490A609C
:1017400001B0704700A0064091190000E400FF1F9F
:10175000E50F0000E800FF1F29110000EC00FF1F4B
:10176000AD100000F000FF1F00B006404918000057
:10177000C51000005D0E0000390E000000C00640DC
:1017800065180000551300006D13000025130000BC
:1017900000D006402D1800003D1300008513000006
:1017A000CD13000000A00E40751900009D1300002D
:1017B000B51300000D13000000B00E40AD1900007D
:0C17C0008111000099110000511100007F
:1017CC0085B0CDF800E001900291ADF80C20ADF899
:1017DC001030BDF81440ADF814400698FFF778FCB3
:1017EC000198FFF775FB02990198FFF7BBFBBDF859
:1017FC000C100198FFF75CFBBDF810100198FFF777
:10180C003BFBBDF814100198FFF71CFB0198FFF788
:10181C002BFB0198FFF78EFCDDF800E005B070475C
:100EDC0081B01849884204D1012252B216490A60E5
:100EEC0026E01649884204D1012252B214490A6004
:100EFC001EE01449884204D1012252B212490A6000
:100F0C0016E01249884204D1012252B210490A60FB
:100F1C000EE01049884204D1012252B20E490A60F7
:100F2C0006E00E49884203D1012252B20C490A60F4
:100F3C0001B0704700A00640A806904200B00640E1
:100F4C00AC06904200C00640B006904200D006406D
:100F5C00B406904200A00E402805904200B00E400E
:040F6C002C0590427E
:100F700085B0CDF800E08046894601AA104600F011
:100F80003DF8164A904503D0154A904500D001E03F
:100F9000019800E002984FEA0912B0FBF2F291B218
:100FA00092B2130A9BB298F800201A4388F80020E6
:100FB00008F10103CAB21A7043014FEA0912B3FBE8
:100FC000F2F34A0192B29A1AD0B208F10A031A78DF
:100FD00002431A70DDF800E005B0704700A006403B
:040FE00000B0064017
:100EBC0081B0841C23784FF6EF7212B203EA02025F
:100ECC002270841C0B0122781A43227001B07047E7
:100E840081B001F0020262B1841C01F002032278F5
:100E94001A432270841C01F0010322781A43227041
:100EA40007E0841C23784FF6FD7212B203EA0202B3
:060EB400227001B070473E
:0C0E500081B002780A43027001B07047C4
:100E740081B0C21C117841F00401117001B07047B7
:1011400081B0C21C117841F00801117001B07047E4
:101BFC0081B0CDF800E0FFF73DFE044A04490A60CD
:101C0C000020DDF800E001B0704700BF2D18000087
:041C1C00B800FF1FEE
:1018800081B0CDF800E003460A48FFF7F9FE0A4AA6
:1018900040F2000104B402B440F20002194640F2E2
:1018A00000030448FFF792FF02B0DDF800E001B04A
:0C18B000704700BF00D00640D0270000A9
:101BB40081B0CDF800E0FFF761FE044A04490A60F1
:101BC4000020DDF800E001B0704700BF2D180000D0
:041BD400B800FF1F37
:101BD80081B0CDF800E0FFF76DFE044A04490A60C1
:101BE8000020DDF800E001B0704700BF9119000047
:041BF800B800FF1F13
:1018BC0081B0CDF800E003460A48FFF7DBFE0A4A88
:1018CC0040F2000104B402B440F20002194640F2A6
:1018DC0000030448FFF774FF02B0DDF800E001B02C
:0C18EC00704700BF00A006403C28000030
:101CE00081B040F6FE07C0F23D0700BF00BF7F1E77
:0C1CF000FDD100BF00BF00BF01B0704775
:101F500081B0CDF800E0582219491A48FFF75CFF1C
:101F600019480221FFF76AFFFFF734FF174908807D
:101F700017480121FFF762FF144800881549FFF751
:101F800061FE02211348FFF759FFFFF793FE124944
:101F9000088012480121FFF751FF0F4800880D49C2
:101FA000FFF750FE02210B48FFF748FF0C480221C3
:101FB000FFF744FFFFF722FFDDF800E001B07047B4
:101FC000EC290000802900000000FF1F7C00FF1F9B
:101FD0001D00FF1F7E00FF1FB000FF1F2900FF1F15
:041FE0003600FF1FA9
:101E180081B0CDF800E00446054B1A700846FFF77C
:101E280029FE2046FFF722FEDDF800E001B07047EA
:041E38006F00FF1F19
:101A7C0081B0026806490A60011D0A6805490A60BE
:101A8C0000F208010A6804490A6001B0704700BFFF
:0C1A9C00BC00FF1FC000FF1FC400FF1FA4
:061A740081B001B07047D3
:101E3C0083B0CDF800E0024610460D228DF8082044
:101E4C000A228DF809201FE0FFF7FEFD23E002783F
:101E5C002AB10190FFF7F8FD0198401CF7E71AE052
:101E6C0002782AB10190FFF7EFFD0198401CF7E7CB
:101E7C0002AA1046FFF7E8FD0DF109021046FFF724
:101E8C00E3FD08E0062007E00029DDD00129DED0C3
:101E9C000229E5D0F6E70020DDF800E003B070473A
:101A540081B0CDF800E00178CCB2A0B2034C246888
:101A6400A0470020DDF800E001B07047B800FF1F78
:1019900081B0CDF800E081B20348FFF761FEDDF8C9
:0C19A00000E001B0704700BF00A006404E
:1016600081B0ADF800100146BDF800000A1D1378E6
:10167000C3F3C01202B9F9E7CA1D107001B0704778
:1018480081B0CDF800E081B20348FFF705FFDDF86D
:0C18580000E001B0704700BF00B0064087
:1018640081B0CDF800E081B20348FFF7F7FEDDF860
:0C18740000E001B0704700BF00C006405B
:10182C0081B0CDF800E081B20348FFF713FFDDF87B
:0C183C0000E001B0704700BF00D0064083
:1019740081B0CDF800E081B20348FFF76FFEDDF8D7
:0C19840000E001B0704700BF00A00E4062
:1019AC0081B0CDF800E081B20348FFF753FEDDF8BB
:0C19BC0000E001B0704700BF00B00E401A
:101DD40083B0CDF800E001A8FFF70EFEFFF738FB53
:101DE40001AA1078010289B2501C007841EA00006F
:081DF400DDF800E003B07047C8
:1019FC0083B0CDF800E0029001AA20211170521C96
:101A0C000821117003212020FFF7D8FFFFF71CFDE0
:101A1C00FFF73AFD01AA0B4909780023C8B2114619
:101A2C000222FFF7FDFCFFF70FFD064909780123A1
:101A3C000622C8B20299FFF785FFDDF800E003B07B
:081A4C00704700BF6F00FF1F8F
:1019C80082B0CDF800E001AA1070521C1170FFF728
:1019D8005DFD01AB064A127819460123D0B20222F6
:1019E800FFF720FDFFF732FDDDF800E002B0704799
:0419F8006F00FF1F5E
:1014940082B0CDF800E040F20004ADF80440064C00
:1014A4002468A047BDF9041041EA000000B2DDF849
:0C14B40000E002B0704700BFBC00FF1F4A
:1011680081B0CDF800E00348FFF75AFDDDF800E054
:0811780001B070470060064061
:100C280084B0CDF800E04FF000024349884205D176
:100C380042490C6842490968039115E041498842D4
:100C480006D141490A6841490968039114460BE0F5
:100C58003F49884206D13F490A683F4909680391DC
:100C6800114600E011460C4601940290FFF700FE81
:100C78000298019C831C0122197862F345111970AE
:100C8800C11C0A78C2F30011C9B1C31C012219782A
:100C980062F304111970811D0A78C2F3001129B199
:100CA800831D0122197862F304111970C31C0122F3
:100CB800197862F3410119704FF6FF7038E0234646
:100CC800019404460198E11C0A78C2F3400151B925
:100CD80040B123B90520039CA047012028E05A1EF3
:100CE8001346FFE7EFE7A11D0A78C2F3001129B107
:100CF800A31D0122197862F304111970E31C012263
:100D0800197862F34101197005462346D91C0A78FF
:100D1800C2F3400159B148B125B90520039CA04749
:100D2800012005E0691E0A461546FFE7EEE70020A8
:100D3800DDF800E004B07047006006407000FF1F57
:100D4800CC00FF1F007006407400FF1FD000FF1F7B
:0C0D580000600E407800FF1FD400FF1F59
:1005CC0081B00249086001B0704700BF0808FE43C3
:1005DC0081B00249086001B0704700BF2C08FE438F
:1005BC0081B00249086001B0704700BF1010FE43C3
:10059C0081B00249086001B0704700BF1410FE43DF
:1005AC0081B00249086001B0704700BF1C10FE43C7
:10061C0081B00249086001B0704700BF1810FE435A
:10062C0081B00249086001B0704700BF2800FE434A
:10060C0081B00249086001B0704700BF3408FE4356
:1005EC0081B00249086001B0704700BF0818FE4393
:1005FC0081B00249086001B0704700BF0C18FE437F
:10058C0081B00249086001B0704700BF2018FE43DB
:10052C0081B00249086001B0704700BF2418FE4337
:10051C0081B00249086001B0704700BF0C08FE436F
:10050C0081B00249086001B0704700BF4C08FE433F
:10056C0081B00249086001B0704700BF0C10FE4317
:10057C0081B00249086001B0704700BF1410FE43FF
:10055C0081B00249086001B0704700BF1C10FE4317
:10053C0081B00249086001B0704700BF1810FE433B
:10054C0081B00249086001B0704700BF2C00FE4327
:10063C0081B00249086001B0704700BF2008FE433A
:1009400081B00249086001B0704700BF4010FE430B
:1009500081B00249086001B0704700BF4410FE43F7
:1009200081B00249086001B0704700BF2018FE4343
:1009300081B00249086001B0704700BF2418FE432F
:1009600081B00249086001B0704700BF1808FE431B
:1009900081B00249086001B0704700BF2808FE43DB
:1009A00081B00249086001B0704700BF0810FE43E3
:1009700081B00249086001B0704700BF1410FE4307
:1009800081B00249086001B0704700BF1C10FE43EF
:1009100081B00249086001B0704700BF1810FE4363
:10066C0081B00249086001B0704700BF1000FE4322
:10067C0081B00249086001B0704700BF1C08FE43FE
:10064C0081B00249086001B0704700BF4010FE4302
:10065C0081B00249086001B0704700BF4410FE43EE
:10068C0081B00249086001B0704700BF2018FE43DA
:1008680081B00249086001B0704700BF2418FE43F8
:1008780082B0CDF800E04FF000021A49884205D155
:1008880019490B6819490968019115E01849884206
:1008980006D118490A6818490968019113460BE0FE
:1008A8001649884206D116490A681649096801910D
:1008B800114600E011460B461D4604462046FFF748
:1008C800BBFD50B943B11DB90720019CA04704E006
:1008D800691E08460546FFE7F0E7DDF800E002B0CC
:1008E800704700BF006006407000FF1FCC00FF1F6C
:1008F800007006407400FF1FD000FF1F00600E400C
:080908007800FF1FD400FF1F5F
:1004400081B0C11C0A78C2F3401181F00101C9B228
:06045000C8B201B07047C4
:10107C0081B0CDF800E00348FFF7D0FDDDF800E0CB
:08108C0001B07047007006403E
:1010940081B0CDF800E00348FFF7C4FDDDF800E0BF
:0810A40001B0704700600E402E
:100FE40081B0CDF800E00348FFF7C2FEDDF800E071
:080FF40001B0704700A00640A7
:100D740081B0011D0A78C2F3401101B9F9E7C11D20
:080D84000978C8B201B0704704
:1011280081B0CDF800E00348FFF772FDDDF800E07C
:0811380001B0704700A0064061
:0E0C180081B0011D0978C1F3401001B0704792
:1010AC0081B0CDF800E00348FFF7A8FDDDF800E0C3
:0810BC0001B0704700A00640DE
:0E0C080081B0011D0978C1F3801001B0704762
:1010C40081B0CDF800E00348FFF752FEDDF800E000
:0810D40001B0704700B00640B6
:100E5C0081B0CDF800E00348FFF7D8FEDDF800E0E4
:080E6C0001B0704700B0064020
:100E380081B0CDF800E00348FFF7E2FEDDF800E0FE
:080E480001B0704700B0064044
:1013540081B0CDF800E00348FFF70AFDDDF800E0B6
:0813640001B0704700C0064013
:10136C0081B0CDF800E00348FFF750FCDDF800E059
:08137C0001B0704700C00640FB
:1013240081B0CDF800E00348FFF76CFCDDF800E085
:0813340001B0704700C0064043
:10133C0081B0CDF800E00348FFF716FDDDF800E0C2
:08134C0001B0704700D006401B
:1013840081B0CDF800E00348FFF744FCDDF800E04D
:0813940001B0704700D00640D3
:1013CC0081B0CDF800E00348FFF718FCDDF800E031
:0813DC0001B0704700D006408B
:10139C0081B0CDF800E00348FFF7E6FCDDF800E093
:0813AC0001B0704700A00E40E3
:1013B40081B0CDF800E00348FFF72CFCDDF800E035
:0813C40001B0704700A00E40CB
:10130C0081B0CDF800E00348FFF778FCDDF800E091
:08131C0001B0704700A00E4073
:1011800081B0CDF800E00348FFF7F4FDDDF800E0A2
:0811900001B0704700B00E40F1
:1011980081B0CDF800E00348FFF73AFDDDF800E044
:0811A80001B0704700B00E40D9
:1011500081B0CDF800E00348FFF756FDDDF800E070
:0811600001B0704700B00E4021
:10142C0082B0CDF800E040F20004ADF80440054C69
:10143C002468A047BDF90440044320B2DDF800E065
:08144C0002B07047C000FF1F51
:1012C40081B0CDF800E008B413460A46C1B2044820
:1012D400FFF7A2FB01B0DDF800E001B0704700BFEA
:0412E4000060064060
:100A1C0087B0CDF800E005920246C8B20693079C59
:100A2C0007944FF000016C4CA24206D16B4C266827
:100A3C006B4C24680494314614E06A4CA24205D1F4
:100A4C00694C2668694C246804940AE0684CA242FC
:100A5C0006D1684C2168684C246804940E4600E06A
:100A6C000E463146440001910292E1B21046FFF766
:100A7C000FFE029A019920B91046FFF76DFE002077
:100A8C00A5E000273B46069CA34216D2059CE41821
:100A9C002478019202910393E1B21046FFF7F8FD1E
:100AAC00039B0299019A20B91046FFF755FE0020CE
:100ABC008DE05C1C27463B46E5E7079C012C48D1A2
:100ACC000B461046C41C2578C5F3400464B141B1F3
:100ADC0023B90420049CA047012078E05A1E144638
:100AEC0000E01C462346EDE7861C0025347865F3B0
:100AFC00451434700A46C41C2578C5F340045CB90F
:100B0C0039B122B90420049CA04701205FE0531E98
:100B1C0000E013461A46EEE7841D2578C5F3001451
:100B2C002CB1861D0125347865F304143470841DB2
:100B3C002578C5F380142CB1861D0125347865F316
:100B4C0086143470C61C0125347865F34104347066
:100B5C002AE0961C0125347865F3820434700B4628
:100B6C001046C41C2578C5F3400464B941B123B9BF
:100B7C000420049CA047012029E05A1E144600E0E2
:100B8C001C462346EDE7841D2578C5F300142CB1D3
:100B9C00861D0125347865F304143470C61C0125B8
:100BAC00347865F3410434700A46C41C2578C5F3C7
:100BBC0040045CB139B122B90420049CA047012047
:100BCC0005E0531E00E013461A46EEE70020DDF860
:100BDC0000E007B0704700BF006006407000FF1FC8
:100BEC00CC00FF1F007006407400FF1FD000FF1FD9
:0C0BFC0000600E407800FF1FD400FF1FB7
:10069C0082B0CDF800E04FF00003264A904205D11D
:1006AC00254A1568254A1268019215E0244A9042A1
:1006BC0006D1244A1368244A126801921D460BE0A5
:1006CC00224A904206D1224A1368224A12680192A9
:1006DC001A4600E01A461546841C0123227863F35F
:1006EC0004122270021D11702C462946C21C13786C
:1006FC00C3F340025AB949B124B90420019CA04764
:10070C00012012E0621E13461C46FFE7EEE7C41CF4
:10071C000123227863F341022270C21C1378C3F3C5
:10072C00000282F00102D2B2D0B2DDF800E002B0D9
:10073C00704700BF006006407000FF1FCC00FF1F19
:10074C00007006407400FF1FD000FF1F00600E40B9
:08075C007800FF1FD400FF1F0D
:1007640084B0CDF800E04FF000023549884205D14D
:1007740034490C6834490968039115E033498842C7
:1007840006D133490A6833490968039114460BE0DA
:100794003149884206D131490A68314909680391CF
:1007A400114600E011460C46831C0022197862F3BE
:1007B40045111970831C0022197862F30411197011
:1007C4000194029000F056F80298019C2346C11C43
:1007D4000A78C2F3400151B944B123B90620039CFD
:1007E400A047012027E05A1E1346FFE7EFE7811DCB
:1007F4000A78C2F3801129B1831D0122197862F3AA
:1008040086111970C31C0122197862F34101197011
:100814002346C11C0A78C2F3400159B14CB123B933
:100824000620039CA047012005E0591E0A461346F2
:10083400FFE7EEE70020DDF800E004B0704700BFFA
:10084400006006407000FF1FCC00FF1F00700640D0
:100854007400FF1FD000FF1F00600E407800FF1FD0
:04086400D400FF1F9E
:1012E80081B0CDF800E008B413460A46C1B20448FC
:1012F800FFF790FB01B0DDF800E001B0704700BFD8
:04130800007006402B
:1011B00081B0CDF800E008B413460A46C1B2044835
:1011C000FFF72CFC01B0DDF800E001B0704700BF74
:0411D00000600E406D
:1014540081B041F67E27C0F2060700BF00BF7F1EA1
:0C146400FDD100BF00BF00BF01B0704709
:1019500082B0CDF800E040F20004ADF80440044C41
:101960002468A047BDF90400DDF800E002B070472C
:04197000C400FF1F91
:1014700081B0CDF800E008B413460A46C1B2044872
:10148000FFF7A8FE01B0DDF800E001B0704700BF33
:0414900000600640B2
:1011D40085B0CDF800E08DF8041001469DF80400B8
:1011E40003920493059C05944400A4B244F00104C2
:1011F40001910846E1B2FFF74FFA019918B9084680
:10120400FFF7AEFA58E08E1C0025347865F3041419
:101214003470049C012C06D18E1C0125347865F3AE
:10122400C304347005E08E1C0025347865F3C304D0
:10123400347001910846FFF7A7FD0199049C621ED2
:10124400002A34DB15E0019102920846FFF788FA80
:10125400029A019912E08E1C0125347865F3C304C7
:1012640034700BE08E1C0025347865F3C3043470AD
:1012740004E0002AE7D0012AEDD0F3E73AB90C1DC7
:101284002578039C2570039C641C03940BE0019156
:1012940002920846FFF778FD029A0199039C207098
:1012A400039C641C0394541E23461A46C8E7059CF9
:1012B40014B90846FFF7B6FCDDF800E005B0704746
:100D8C0082B0CDF800E04FF000021F49884205D137
:100D9C001E490B681E490968019115E01D498842DE
:100DAC0006D11D490A681D490968019113460BE0DB
:100DBC001B49884206D11B490A681B4909680191E5
:100DCC00114600E011460B46011D0C781D46C11C56
:100DDC000A78C2F3400159B94BB125B90320019CE3
:100DEC00A04701200BE0691E0A461546FFE7EEE717
:100DFC00C31C0122197862F341011970E0B2DDF8CD
:100E0C0000E002B0704700BF006006407000FF1F9A
:100E1C00CC00FF1F007006407400FF1FD000FF1FA6
:0C0E2C0000600E407800FF1FD400FF1F84
:1014080081B0CDF800E008B413460A46C1B20448DA
:10141800FFF7DCFE01B0DDF800E001B0704700BF67
:04142800007006400A
:1013E40081B0CDF800E008B413460A46C1B20448FF
:1013F400FFF7EEFE01B0DDF800E001B0704700BF7A
:0414040000600E4036
:101C440081B0CDF800E00E46002183B2002805DA09
:101C54000121404280B280B28FB201E098B28FB2CB
:101C64003146FFF77DFF06213446B8B2002908D972
:101C740063184A1E92B2A21812781A70491E89B2C9
:101C8400F4E72022227070B1002081B2204642186D
:101C94001278202A02D1491C89B2F8E74A1E92B26E
:0E1CA40083182D221A70DDF800E001B07047A1
:101B640081B00A4681B200208DB21146052805D203
:101B74000B1820221A70401CC0B2F7E70B18002281
:101B84001A70401EC0B20C180A23B5FBF3F203FB13
:101B9400125292B2303222700A22B5FBF2F292B2A1
:101BA40095B202B902E0401EC0B2ECE701B0704742
:101CB40083B0CDF800E001A8FFF79EFEFFF7C8FB54
:101CC40001AAD01C0078010289B2101D007841EAF3
:0A1CD4000000DDF800E003B07047E7
:101DFC0081B045F6FE17C0F2622700BF00BF7F1E00
:0C1E0C00FDD100BF00BF00BF01B0704757
:101EAC0081B0CDF800E0FFF75DFF154908801548BB
:101EBC000121FFF7BDFF124800881349FFF7BCFE54
:101ECC0002211148FFF7B4FFFFF712FF0F490880FA
:101EDC000F480121FFF7ACFF0C4800880A49FFF7B7
:101EEC00ABFE02210848FFF7A3FF0A480221FFF7C7
:101EFC009FFFFFF77DFFDDF800E001B0704700BFEA
:101F0C00B200FF1F4600FF1F7E00FF1FB400FF1F23
:081F1C005100FF1F5F00FF1FD1
:101D700083B0CDF800E001A8FFF7C6FEFFF76AFBCD
:101D800001AA1078010289B2501C007841EA0000D3
:081D9000DDF800E003B070472C
:101B080083B0CDF800E0029001AA20211170521C88
:101B18005021117003212020FFF752FF00F0DCF85C
:101B2800FFF7B4FC01AA0C4909780023C8B2114692
:101B38000222FFF777FC00F0CFF800F0CDF8064955
:101B4800097801230622C8B20299FFF7FDFEDDF8E5
:0C1B580000E003B0704700BF6F00FF1FEB
:101CFC0083B0CDF800E001A8FFF700FFFFF7A4FBCD
:101D0C0001AAD01C0078010289B2101D007841EAAA
:0A1D1C000000DDF800E003B070479E
:1020A40090B072B697480190974802909748039071
:1020B400974804909748059097480690974807904A
:1020C400974808909748099097480A9097480B902A
:1020D40097480C90974998480D9098480E900D9801
:1020E40000F007000F9001F0010050B94CF22050AD
:1020F400934908804DF62810088040F2D211914887
:1021040001809148007800F0010050B18F480078B8
:1021140000F0080020B18D49087840F008000870EC
:1021240021E08B48006840F00051894801608948EB
:10213400006800F48070B0B9864801686FF470508C
:1021440001EA000040F4407182480160814800685F
:1021540040F480717F4801607E4801686FF400702C
:1021640001407C480160AA217B4801700D9800F071
:10217400100060B9794801786FF060000140774839
:10218400017077480078012800D0FAE71CE00D9828
:1021940000F01000C0B10E997248814208D9602144
:1021A4006E4801706E480078802800D0FAE70BE092
:1021B4006A4801786FF0600001406848017068481F
:1021C4000078012800D0FAE704996748016067485D
:1021D40001686FF440200140029800F4402001435C
:1021E40062480160624801686FF44030014003981E
:1021F40000F4403001435E4801600F9830B10F98FD
:10220400012803D00F98022800D061E0019800F063
:10221400800050B9089800F0400028B10B9800F0F5
:102224000300002800D100E015E05248006840F4A3
:1022340000715048016050480168504801404E48C0
:102244000160069800F0040028B14D4801684B482D
:1022540001404B4801600A994A48017005994A486F
:102264000170059800F0040038B14848007800F087
:102274001000002800D1F8E705E04448007800F099
:10228400100000B1F9E74248007800F0BF01C9B27C
:10229400069800F0FD0001433D480170079800F0E6
:1022A400E0013C48007800F01F0001433948017008
:1022B4000199394801700B99384801700F98022828
:1022C40005D13348007840F0020131480170B8E08C
:1022D400019800F0800020B90B9800F0030000B1D1
:1022E40065E02448006840F40071224801602248F7
:1022F40001682248014020480160069800F004006B
:1023040000F04EB80000000000000C0000000100C6
:10231400000014012200000024000000000000005E
:102324000200000046000000000000000000000061
:10233400000000000000000007000000C0D40100FD
:102344000E2005400020054000F0074002D0074061
:102354003C80044010D0034000E0074001E0074007
:1023640003E00740803801004480044000700440CA
:10237400048004403880044048900440FFF8FFFE85
:102384004C90044008400640004006400640064089
:102394000140064003400640005006400C40064001
:1023A40028B17A4801687A480140784801600A995E
:1023B400784801707848007800F0BF01C9B20698E7
:1023C40000F0FD00014374480170019973480170E5
:1023D4000B99734801700F98072805D1059840F0B0
:1023E40080017048017002E005996E4801700698FA
:1023F40000F0040048B10B9800F0030028B96A48C3
:10240400007800F0020000B9F9E7059800F0040034
:1024140038B16548007800F01000002800D1F8E7D2
:1024240005E06148007800F0100000B1F9E7079872
:1024340000F0E0015D48007800F01F0001435B48B4
:102444000170089800F0BF0159480170099800F024
:10245400BF0158480170089800F0400028B1544862
:10246400007840F04001524801700F98052806D1C9
:102474004948007840F00201474801701BE00F987A
:10248400062803D00F98072800D014E049480078A4
:1024940040F04001474801704348007800F0400094
:1024A40000B9F9E70F98072805D13E48007800F0F5
:1024B4003F013C4801700F9818B10F98032800D0D1
:1024C4002CE03948007800F00C0000B1F9E73A48F4
:1024D400006840F00101384801604FF000013748BE
:1024E40001604FF08001364801604FF00501354826
:1024F40001604FF00101324801603148006800F08A
:10250400800000B9F9E700212D4801602A480168DC
:102514006FF001000140284801602AE00F9801286B
:1025240003D00F98022800D007E01F48007800F07D
:102534000C00042800D0F8E71BE00F98042806D00C
:102544000F98062803D00F98052800D007E01648F6
:10255400007800F00C00082800D0F8E709E00F9894
:10256400072806D11048007800F00C000C2800D091
:10257400F8E7154801686FF00F0001400C9800F06F
:102584000F0001431048016010B070474C900440A4
:10259400FFF8FFFE08400640014006400050064098
:1025A4000C400640004006400640064003400640FA
:1025B40004400640054006403880044008000440BA
:0C25C40000000440040004404880044073
:1020680081B002490248016001B07047C0D4010044
:04207800C800FF1F7E
:0820340081B0FEE701B0704726
:10203C0081B072B60849086840F47000086000BFAF
:10204C0000BF00BF00BFF1EE100A40F44000E1EE0B
:0C205C00100A62B601B0704788ED00E089
:1029FC0000B5DFF824B0DFF824A0DFF824C0FFF71F
:102A0C0009FBDFF820B0DFF820A0DFF820C0FFF7CB
:102A1C0001FB00BD704700BF0000FF1F6F00FF1FD0
:102A2C00602700007000FF1F7C00FF1FE0290000E2
:102A980000B5DFF810B0DFF810A0FFF79FFA00BD0F
:0C2AA800704700BF0000FF1FF400FF1F7C
:100400000000000000000000FFFFFFFF02FDFFFFF3
:1025D00000000000140000000100000016000000D0
:1025E0000200000018000000030000001A000000B4
:1025F000040000001C000000050000001E00000098
:102600000900000020000000060000002200000079
:102610000A0000002400000007000000280000005D
:102620000C0000002C000000100000003000000032
:1026300011000000380000001200000040000000FF
:102640000F000000440000001300000048000000DC
:1026500014000000500000001500000058000000A9
:102660001900000060000000160000006800000073
:102670001A00000070000000170000008000000039
:102680001C000000900000001D000000A0000000E1
:102690001E000000C000000022000000E00000005A
:1026A0001F000000F00000002300000000010000F7
:1026B000240000002001000025000000400100006F
:1026C00026000000800100002A000000C001000078
:1026D00027000000E00100002B00000000020000C5
:1026E0002C000000400200002D00000080020000CD
:1026F0002E000000000300003200000080030000F4
:102700002F000000C00300003300000000040000A0
:1027100034000000800400003500000000050000C7
:1027200036000000000600003A000000000700002C
:1027300037000000800700003B0000000008000098
:102740003C000000000900003D000000000A0000FD
:102750003E000000000C00003F000000000F0000E1
:10276000416972205175616C697479203420696EF9
:10277000697469616C697A652E2E2E2E00434F3282
:102780002076616C75653A200054564F432076617F
:062790006C75653A2000A3
:102796002D2D2D2D2D2D2D2D2D2D2D2D2D2D2D0090
:1027A60048322076616C75653A20004574684F485A
:1027B6002076616C75653A20002D2D2D2D2D2D2D41
:0927C6002D2D2D2D2D2D2D2D00A2
:1027D0005103000050030000FFFFFFFF0000000056
:1027E00000000000000000000000000000000000E9
:1027F00000000000000000000000000000000000D9
:10280000000000000000080000000800FFFFFFFFBC
:1028100000000000000000000000000000000000B8
:1028200000000000000000000000000000000000A8
:0C2830000000000000000000000000009C
:10283C003103000030030000FFFFFFFF0000000029
:10284C00000000000000000000000000000000007C
:10285C00000000000000000000000000000000006C
:10286C00000000000000080000000800FFFFFFFF50
:10287C00000000000000000000000000000000004C
:10288C00000000000000000000000000000000003C
:0C289C0000000000000000000000000030
:1028A8006303000062030000FFFFFFFF0000000059
:1028B8000000000000000000000000000000000010
:1028C8000000000000000000000000000000000000
:1028D800000000000000080000000800FFFFFFFFE4
:1028E80000000000000000000000000000000000E0
:1028F80000000000000000000000000000000000D0
:0C290800000000000000000000000000C3
:102914006802000069020000FFFFFFFF00000000E2
:1029240000000000000000000000000000000000A3
:102934000000000000000000000000000000000093
:10294400000000000000080000000800FFFFFFFF77
:102954000000000000000000000000000000000073
:102964000000000000000000000000000000000063
:0C29740000000000000000000000000057
:10298000CD050000DD050000BD0500009D0500002F
:10299000AD0500001D0600002D0600000D0600001C
:1029A000ED050000FD0500008D0500002D0500006F
:1029B000FFFFFFFFFFFFFFFFFFFFFFFFFFFFFFFF27
:1029C000FFFFFFFFFFFFFFFFFFFFFFFFFFFFFFFF17
:1029D000FFFFFFFFFFFFFFFFFFFFFFFFFFFFFFFF07
:0429E00000000000F3
:0429E40000000000EF
:0429E80000000000EB
:0C29EC0069110000C51200007114000009
:0429F800A0860100B4
:00000001FF
