:10000000D7EF0CF00000000000EF00F0000000004F
:0A0010000000000000000000F3D71C
:0E001C0001013CB102D08B9801D08B881200FC
:0E002A0001013CB102D08B9601D08B861200F2
:0E00380001013CB102D08D9601D08D861200E0
:0E00460001013CB102D0899401D089841200DE
:0E00540001013CB102D08B9C01D08B8C1200BC
:0E00620001013CB102D08B9401D08B841200BE
:0E00700001013CB102D08B9A01D08B8A1200A4
:0E007E0001013CB102D08B9E01D08B8E12008E
:0E008C0001013CB102D08A9201D08A8212009A
:0E009A0001013CB102D08D9401D08D84120082
:0E00A80001013CB102D08F9201D08F82120074
:0E00B60001013CB102D08F9401D08F84120062
:0E00C40001013CB102D08B9801D08B88120054
:0E00D20001013CB102D08B9601D08B8612004A
:0E00E00001013CB102D08A9401D08A84120042
:0E00EE0001013CB102D08B9801D08B8812002A
:0E00FC0001013CB102D08B9601D08B86120020
:0E010A0001013CB102D08F9001D08F80120015
:0E01180001013CB102D08B9A01D08B8A1200FB
:0E01260001013CB102D08B9801D08B881200F1
:0E01340001013CB102D08B9601D08B861200E7
:0E01420001013CB102D08B9201D08B821200E1
:0E01500001013CB102D08B9A01D08B8A1200C3
:0E015E0001013CB102D08D9001D08D801200C5
:10016C000F0121B302D00000FBD73CC11CFF1200D1
:0E017C00ACB202D00000FCD73CC1ADFF1200B7
:0E018A0001013CB102D08B9001D08B8012009D
:0E01980001013CB102D0899001D08980120093
:0E01A60001013CB102D08A9001D08A80120083
:0E01B40001013CB102D08D9201D08D8212006B
:0E01C20001013CB102D0899801D08988120059
:0E01D00001013CB102D08B9801D08B88120047
:0E01DE0001013CB102D08B9601D08B8612003D
:0E01EC0001013CB102D0899201D0898212003B
:0E01FA0001013CB102D08B9C01D08B8C120015
:0E02080001013CB102D08B9E01D08B8E120002
:0E02160001013CB102D08B9801D08B88120000
:0E02240001013CB102D08B9601D08B861200F6
:1002320068B409D01F0E6614016E0150000A03E172
:0A024200010E006E01D0006A1200E8
:10024C00F250026EF29E0500FF6A0150FE6E0050E5
:08025C00FD6E02BEF28E1200DD
:10026400C7B409D01F0EC514016E0150000A03E182
:0A027400010E006E01D0006A1200B6
:0C027E00000E0F0121B3010E006E1200F3
:0A028A00000E84B0010E006E120099
:0A029400000EA4BA010E006E120065
:0A029E00000E82B6010E006E120081
:0A02A800000E82B0010E006E12007D
:0A02B200000E80B0010E006E120075
:0A02BC00000E9EBA010E006E120043
:1002C600AECF01F0ABA202D0AB98AB8801C000F074
:0202D600120014
:0A02D800000E82BA010E006E120043
:1002E2001DCF01F00F0122A302D02299228901C061
:0402F20000F0120006
:1002F60074C038F175C039F176C03AF177C03BF178
:100306000101366B376B3751120802E136518E0800
:1003160008E38CDF005201E004D00101364B372B95
:10032600F2D70101120E375D02E18F0E365D03E34F
:100336007B0E006E26D0668066A022D00001745126
:100346007511761177111BE00101385139113A11F7
:100356003B110EE1D5C0E1FFD6C0E2FF050EE66E09
:10036600D3C000F0D4C001F06EDF010E006E09D0DC
:10037600010E0101385F000E395B3A5B3B5BDCD74F
:04038600006A1200F7
:0A038A00000EACB2010E006E12006E
:0A039400000E80B2010E006E120090
:0A039E00000E82B8010E006E12007E
:0A03A800000E82B6010E006E120076
:0A03B200000E82B6010E006E12006C
:0A03BC00000E84B2010E006E120064
:0A03C600000E80B8010E006E120058
:0A03D000000E82B2010E006E120052
:0A03DA00000E82BA010E006E120040
:0A03E400000E82B8010E006E120038
:0A03EE00000E82BC010E006E12002A
:0A03F800000E82BE010E006E12001E
:0A040200000E81B0010E006E120022
:0A040C00000E82B4010E006E120013
:0A041600000E82B8010E006E120005
:1004200088C038F189C039F18AC03AF18BC03BF1FC
:100430009E96C5869EB620D00001885189118A11EA
:100440008B1119E00101385139113A113B110CE1BE
:10045000E5C0E1FFE6C0E2FF030EE66EE3C000F098
:10046000E4C001F0F3DE08D0010E0101385F000E98
:10047000395B3A5B3B5BDED70101C9CF37F13651BF
:10048000000A02E1C58A01D0C59A9E96C58888C037
:1004900038F189C039F18AC03AF18BC03BF19EB680
:1004A00020D00001885189118A118B1119E00101B6
:1004B000385139113A113B110CE1E5C0E1FFE6C0BA
:1004C000E2FF030EE66EE3C000F0E4C001F0BEDE22
:1004D00008D0010E0101385F000E395B3A5B3B5BCF
:0804E000DED737C100F0120065
:1004E8009E9636C1C9FF88C037F189C038F18AC0E5
:1004F80039F18BC03AF1C7A422D000018851891183
:100508008A118B111BE001013751381139113A1149
:100518000EE1E5C0E1FFE6C0E2FF040EE66EE3C0CF
:1005280000F0E4C001F08EDE010E006E3BD0010E3B
:100538000101375F000E385B395B3A5BDCD788C056
:1005480037F189C038F18AC039F18BC03AF19EB6CB
:1005580022D00001885189118A118B111BE00101F9
:100568003751381139113A110EE1E5C0E1FFE6C003
:10057800E2FF040EE66EE3C000F0E4C001F062DEC4
:10058800010E006E0FD0010E0101375F000E385BBF
:10059800395B3A5BDCD7C5BC02D0006A03D0C5849E
:0605A800020E006E1200BD
:0A05AE00000E86B4010E006E12006C
:0A05B800000E86B2010E006E120064
:0A05C200000E82B6010E006E12005A
:1005CC0074C038F175C039F176C03AF177C03BF19F
:1005DC00A19A6686A1BA20D00001745175117611CA
:1005EC00771119E00101385139113A113B110CE125
:1005FC00D5C0E1FFD6C0E2FF030EE66ED3C000F01B
:10060C00D4C001F01DDE08D0010E0101385F000ED0
:10061C00395B3A5B3B5BDED701016ACF37F1365170
:10062C00000A02E1668A01D0669AA19A668874C0B3
:10063C0038F175C039F176C03AF177C03BF1A1BA07
:10064C0020D00001745175117611771119E0010158
:10065C00385139113A113B110CE1D5C0E1FFD6C02C
:10066C00E2FF030EE66ED3C000F0D4C001F0E8DD6B
:10067C0008D0010E0101385F000E395B3A5B3B5B21
:08068C00DED737C100F01200B7
:1006940074C036F175C037F176C038F177C039F1DE
:1006A400668266A220D0000174517511761177110B
:1006B40019E0010136513711381139110CE1D5C057
:1006C400E1FFD6C0E2FF060EE66ED3C000F0D4C050
:1006D40001F0BADD08D0010E0101365F000E375B70
:0806E400385B395BDED7120020
:0406EC00668412000E
:1006F00088C038F189C039F18AC03AF18BC03BF12A
:100700000101366B376B3751120802E136518E0802
:1007100008E3A8DD005201E004D00101364B372B7D
:10072000F2D70101120E375D02E18F0E365D03E351
:100730007B0E006E26D0C580C5A022D00001885156
:1007400089118A118B111BE00101385139113A11BD
:100750003B110EE1E5C0E1FFE6C0E2FF050EE66EEB
:10076000E3C000F0E4C001F071DD010E006E09D0BD
:10077000010E0101385F000E395B3A5B3B5BDCD751
:04078000006A1200F9
:10078400A19A36C16AFF74C037F175C038F176C0DA
:1007940039F177C03AF168A422D00001745175117F
:1007A400761177111BE001013751381139113A11D3
:1007B4000EE1D5C0E1FFD6C0E2FF040EE66ED3C061
:1007C40000F0D4C001F040DD010E006E3BD0010EFC
:1007D4000101375F000E385B395B3A5BDCD774C0CC
:1007E40037F175C038F176C039F177C03AF1A1BA62
:1007F40022D0000174517511761177111BE00101AB
:100804003751381139113A110EE1D5C0E1FFD6C084
:10081400E2FF040EE66ED3C000F0D4C001F014DD94
:10082400010E006E0FD0010E0101375F000E385B20
:10083400395B3A5BDCD766BC02D0006A03D06684BD
:06084400020E006E12001E
:10084A0088C036F189C037F18AC038F18BC039F1D6
:10085A00C582C5A220D00001885189118A118B1145
:10086A0019E0010136513711381139110CE1E5C08F
:10087A00E1FFE6C0E2FF060EE66EE3C000F0E4C068
:10088A0001F0DFDC08D0010E0101365F000E375B94
:08089A00385B395BDED7120068
:0408A200C5841200F7
:0A08A600000E81B4010E006E120076
:0A08B000000E82BC010E006E120063
:0A08BA00000E82B6010E006E12005F
:0A08C400000E82B8010E006E120053
:0A08CE00000E82B8010E006E120049
:0A08D800000E81B2010E006E120046
:0A08E200000E82BE010E006E12002F
:0A08EC00000E80B4010E006E120031
:0A08F600000E82B8010E006E120021
:0A090000000E82BA010E006E120014
:0A090A00000E86B0010E006E120010
:0A091400000E84B6010E006E120002
:0A091E00000E84B4010E006E1200FA
:0A092800000E82B6010E006E1200F0
:1009320001012C6B2D6BC6C000F0C7C001F085DC35
:1009420000C02CF1000E01012D6F2CC100F02DC151
:0409520001F012009E
:10095600D00E0C6EC90E0D6E0D2EFED70C2EFCD7CA
:0609660000000000120079
:10096C000101346B356B2DC132F12EC133F12CC129
:10097C0000F000360090DDC0E1FFDEC0E2FF00C0F9
:10098C00E6FFDBC000F0DCC001F05ADC00500101D6
:10099C003413000E35132FC100F030C101F0010EDD
:1009AC002F5F000E305B0050011017E0DDC0E1FF3F
:1009BC00DEC0E2FF32C1E9FF33C1EAFFEECFE6FF52
:1009CC00DBC000F0DCC001F03BDC00500101341353
:1009DC00000E3513324B332BDED73151000A05E1B3
:1009EC00DFC000F0E0C001F02BDC01013151010A45
:1009FC0005E1C6C000F0C7C001F022DC34C100F034
:060A0C0035C101F01200EB
:100A12006C0E0101016F010E026F3C0E036F010E9D
:100A2200046FE20E0001F76F020EF86F000EF96F0D
:100A3200000EFA6F940EF36F020EF46F000EF56F54
:100A4200000EF66F7E0EFB6F020EFC6F000EFD6F46
:100A5200000EFE6F0F01218B900E226F98849892E8
:0C0A6200A4AA03D01DCF00F0FBD71200A7
:100A6E00090E0B6E1E0E0C6EE40E0D6E0D2EFED7C5
:0C0A7E000C2EFCD70B2EFAD70000120043
:100A8A0022C124F123C125F14FDFCAC02CF1240E63
:100A9A002D6F010E2E6F020E2F6F000E306F316B0D
:060AAA0060DF54DF1200C2
:100AB0007C0E0101016F010E026F3C0E036F010EEF
:100AC000046FC60E0001F76F020EF86F000EF96F8B
:100AD000000EFA6FBC0EF36F020EF46F000EF56F8E
:100AE000000EF66F8A0EFB6F030EFC6F000EFD6F9B
:100AF000000EFE6FAC8A900EAB6E948E949C9EAAF4
:0A0B000003D0AECF00F0FBD71200C7
:100B0A00640E0101056F020E066F000E076F000EDC
:100B1A00086FF00E0D6F060E0E6F000E0F6F000EAF
:100B2A00106F4A0E096F080E0A6F000E0B6F000E47
:100B3A000C6F200E0001EB6F040EEC6F360EED6F9A
:100B4A00010EEE6FE80EE76F040EE86F360EE96FDE
:100B5A00010EEA6FA20EEF6F080EF06F000EF16F32
:100B6A00000EF26F949894968B988B96948894863C
:0A0B7A00C79EC79C380EC66E12001D
:100B8400086A096A100E0C6E0134083609360450DE
:100B9400085E0550D8A0053C095ED8B007D00450C3
:100BA40008260550D8B0053C0926D89000360136F1
:060BB4000C2EEAD712002E
:100BBA0001012A6B2B6B23C128F124C129F122C11F
:100BCA0000F0003600900080DDC0E1FFDEC0E2FFE9
:100BDA0000C0E6FFDBC000F0DCC001F026EC01F04B
:100BEA00005001012A13000E2B13010E255F000E7F
:100BFA00265B2551261116E0D1C0E1FFD2C0E2FFE3
:100C0A00010EE66ECFC000F0D0C001F026EC01F074
:100C1A0028C1E1FF29C1E2FF00C0E6FF0101284B1C
:100C2A00292BE3D7D1C0E1FFD2C0E2FFE66ACFC0E9
:100C3A0000F0D0C001F026EC01F028C1E1FF29C183
:100C4A00E2FF00C0E6FF01012751000A06E1DFC00A
:100C5A0000F0E0C001F026EC01F001012751010A81
:100C6A0006E1CBC000F0CCC001F026EC01F02AC1AD
:080C7A0000F02BC101F0120093
:100C8200D9C0E1FFDAC0E2FF1BC1E9FF1CC1EAFFE4
:100C9200EECFE6FFD7C000F0D8C001F026EC01F09D
:040CA200006A1200D2
:020CA60012003A
:100CA8001BC1F6FF1CC1F7FF1DC1F8FF0900F5CFF6
:100CB800C6F00900F5CFC7F00900F5CFC8F0090064
:100CC800F5CFC9F0040E01011B25F66E000E1C219C
:100CD800F76E000E1D21F86E0900F5CFDFF0090050
:100CE800F5CFE0F00900F5CFE1F00900F5CFE2F02B
:100CF800080E1B25F66E000E1C21F76E000E1D2136
:100D0800F86E0900F5CFCBF00900F5CFCCF009005B
:100D1800F5CFCDF00900F5CFCEF00C0E1B25F66E01
:100D2800000E1C21F76E000E1D21F86E0900F5CF8C
:100D3800DBF00900F5CFDCF00900F5CFDDF00900A4
:100D4800F5CFDEF0100E1B25F66E000E1C21F76E97
:100D5800000E1D21F86E0900F5CFCFF00900F5CF80
:100D6800D0F00900F5CFD1F00900F5CFD2F012008C
:100D780021D0CF0EAF6EAC9497DE6BD0670EAF6EFE
:100D8800AC9492DE66D0CF0EAF6EAC848DDE61D0AF
:100D9800670EAF6EAC8488DE5CD0440EAF6EAC8458
:100DA80083DE57D0220EAF6EAC847EDE52D0060EA4
:100DB800006E59D0000E006E01011E1908E10050A6
:100DC8001D1905E1120E1C1902E11B51C00AD1E0E0
:100DD800000E006E1E1908E100501D1905E1250ED0
:100DE8001C1902E11B51800AC9E0000E006E1E1991
:100DF80008E100501D1905E14B0E1C1902E11B51B9
:100E0800000AC1E0000E006E1E1908E100501D190D
:100E180005E1960E1C1902E11B51000AB9E0000E0B
:100E2800006E1E1908E100501D1905E1E10E1C199C
:100E380002E11B51000AB1E01E51000A08E11D51F0
:100E4800010A05E11C51C20A02E11B51000AAAE08D
:100E5800AED77C0E0001D76F010ED86F3C0ED96F4C
:080E6800010EDA6F006A1200AE
:100E700038D00F0120870D0E1F6F040E1E6F2185C5
:100E8000C8DD7ED00F012087060E1F6F820E1E6FF9
:100E90002185BFDD75D00F012087030E1F6F400E27
:100EA0001E6F2185B6DD6CD00F012087010E1F6FEC
:100EB000A00E1E6F2185ADDD63D00F012087010ECE
:100EC0001F6F150E1E6F2185A4DD5AD00F012087DC
:100ED0001F6B8A0E1E6F21859CDD52D0060E006EA0
:100EE00059D0000E006E01011E1908E100501D19B5
:100EF00005E1120E1C1902E11B51C00ABAE0000EF6
:100F0000006E1E1908E100501D1905E1250E1C197F
:100F100002E11B51800AB6E0000E006E1E1908E1C6
:100F200000501D1905E14B0E1C1902E11B51000A6E
:100F3000B2E0000E006E1E1908E100501D1905E117
:100F4000960E1C1902E11B51000AAEE0000E006E65
:100F50001E1908E100501D1905E1E10E1C1902E1FE
:100F60001B51000AAAE01E51000A08E11D51010AA6
:100F700005E11C51C20A02E11B51000AA7E0AED7ED
:100F80006C0E0001D76F010ED86F3C0ED96F010EA9
:060F9000DA6F006A120096
:100F960021D0CF0EAF6EAC9488DD6BD0670EAF6EEE
:100FA600AC9483DD66D0CF0EAF6EAC847EDD61D0AF
:100FB600670EAF6EAC8479DD5CD0440EAF6EAC8448
:100FC60074DD57D0220EAF6EAC846FDD52D0060EA4
:100FD600006E59D0000E006E01011E1908E1005086
:100FE6001D1905E1120E1C1902E11B51C00AD1E0C0
:100FF600000E006E1E1908E100501D1905E1250EB0
:101006001C1902E11B51800AC9E0000E006E1E1970
:1010160008E100501D1905E14B0E1C1902E11B5198
:10102600000AC1E0000E006E1E1908E100501D19ED
:1010360005E1960E1C1902E11B51000AB9E0000EEB
:10104600006E1E1908E100501D1905E1E10E1C197C
:1010560002E11B51000AB1E01E51000A08E11D51D0
:10106600010A05E11C51C20A02E11B51000AAAE06D
:10107600AED77C0E0001D76F010ED86F3C0ED96F2C
:08108600010EDA6F006A12008E
:10108E0021D0CF0EAF6EAC940CDD6BD0670EAF6E71
:10109E00AC9407DD66D0CF0EAF6EAC8402DD61D0AE
:1010AE00670EAF6EAC84FDDC5CD0440EAF6EAC84CC
:1010BE00F8DC57D0220EAF6EAC84F3DC52D0060EA5
:1010CE00006E59D0000E006E01011E1908E100508D
:1010DE001D1905E1120E1C1902E11B51C00AD1E0C7
:1010EE00000E006E1E1908E100501D1905E1250EB7
:1010FE001C1902E11B51800AC9E0000E006E1E1978
:10110E0008E100501D1905E14B0E1C1902E11B519F
:10111E00000AC1E0000E006E1E1908E100501D19F4
:10112E0005E1960E1C1902E11B51000AB9E0000EF2
:10113E00006E1E1908E100501D1905E1E10E1C1983
:10114E0002E11B51000AB1E01E51000A08E11D51D7
:10115E00010A05E11C51C20A02E11B51000AAAE074
:10116E00AED77C0E0001D76F010ED86F3C0ED96F33
:08117E00010EDA6F006A120095
:101186001BC11EF11CC11FF11DC120F10BD0A00E09
:10119600C86EB8DC44D0280EC86EB4DC40D0040E4D
:1011A600006E3FD01EC1F6FF1FC1F7FF20C1F8FF3A
:1011B6000900F5CF01F00900F5CF02F00900F5CFDF
:1011C60003F00900F5CF04F00450000A08E10350CB
:1011D600010A05E10250860A02E10150A00AD7E0A1
:1011E6001EC1F6FF1FC1F7FF20C1F8FF0900F5CFAA
:1011F60001F00900F5CF02F00900F5CF03F0090070
:10120600F5CF04F00450000A08E10350060A05E190
:1012160002501A0A02E10150800ABDE0C0D7000E52
:04122600006E120044
:10122A001BC11EF11CC11FF11DC120F10BD0A00E64
:10123A00C86E66DC44D0280EC86E62DC40D0040E4C
:10124A00006E3FD01EC1F6FF1FC1F7FF20C1F8FF95
:10125A000900F5CF01F00900F5CF02F00900F5CF3A
:10126A0003F00900F5CF04F00450000A08E1035026
:10127A00010A05E10250860A02E10150A00AD7E0FC
:10128A001EC1F6FF1FC1F7FF20C1F8FF0900F5CF05
:10129A0001F00900F5CF02F00900F5CF03F00900CB
:1012AA00F5CF04F00450000A08E10350060A05E1EC
:1012BA0002501A0A02E10150800ABDE0C0D7000EAE
:0412CA00006E1200A0
:1012CE00200E01011D6F500E1E6F200E226F030E99
:1012DE00236F45EC05F037EC05F099EC04F0CAC02D
:1012EE002CF11D0E2D6F010E2E6F020E2F6F000EA4
:1012FE00306F010E316FB6EC04F037EC05F037ECC1
:10130E0005F0CAC022F11BC123F11CC124F1060E47
:0E131E000101256F000E266F276B48DC1200C0
:10132C00200E01011D6F080E1E6F200E226F030E82
:10133C00236F45EC05F0ABEC04F099EC04F0CAC05B
:10134C002CF11D0E2D6F010E2E6F020E2F6F000E45
:10135C00306F010E316FB6EC04F0ABEC04F0CAC088
:10136C0022F11BC123F11CC124F1060E0101256FD2
:0A137C00000E266F276B1BDC120029
:101386001BC11EF11CC11FF11DC120F10DD0A00E05
:10139600C86E85EC05F045D0280EC86E85EC05F0C4
:1013A60040D0040E006E3FD01EC1F6FF1FC1F7FFEE
:1013B60020C1F8FF0900F5CF01F00900F5CF02F0D2
:1013C6000900F5CF03F00900F5CF04F00450000A38
:1013D60008E10350010A05E10250860A02E10150C4
:1013E600A00AD5E01EC1F6FF1FC1F7FF20C1F8FF16
:1013F6000900F5CF01F00900F5CF02F00900F5CF9D
:1014060003F00900F5CF04F00450000A08E1035088
:10141600060A05E102501A0A02E10150800ABCE000
:08142600C0D7000E006E120099
:10142E0001011F6B050E1F5D0AE21F511D25E16EA6
:10143E00000E1E21E26E200EE66E1F2BF3D71F51FB
:10144E001D25E16E000E1E21E26EE66A1F071F517A
:10145E001D25206F000E1E21216F0A0E046E000E38
:10146E00056E1BC100F01CC101F0C2EC05F008C0F6
:10147E0000F009C001F0300E002620C1E1FF21C1AD
:10148E00E2FF00C0E6FF0A0E046E000E056E1BC1E1
:10149E0000F01CC101F0C2EC05F000C01BF101C050
:1014AE001CF1000E011802E1000E001801E102D03D
:0614BE001F07CDD712004C
:1014C4001BD012C11BF113C11CF114C11DF159DE53
:1014D4001ED012C11BF113C11CF114C11DF151DF47
:1014E40016D012C11BF113C11CF114C11DF19BDEF6
:1014F4000ED0010E006E0BD001011151000AE1E083
:101504001151010AE6E01151020AEBE0F2D7120090
:101514002BD012C11BF113C11CF114C11DF115C153
:101524001EF1B3DD2FD012C11BF113C11CF114C184
:101534001DF115C11EF12DDD25D012C11BF113C102
:101544001CF114C11DF115C11EF190DC1BD012C198
:101554001BF113C11CF114C11DF115C11EF10ADCEC
:1015640011D0010E006E0ED001011151000AD1E01C
:101574001151010AD8E01151020ADFE01151100A99
:06158400E6E0EFD71200C3
:10158A00520E0B6E2B0E0C6E000E0D6E0D2EFED72C
:0C159A000C2EFCD70B2EFAD7000012001C
:1015A600130E01011B6F010E1C6F8EDEABEC04F0F7
:1015B60013C111F1000E0101126F11C101F0006A91
:1015C60000C011F101C012F114510012000E0112F7
:0A15D60000C011F101C012F1120073
:1015E0000101176B186B11C119F112C11AF1800EAC
:1015F0001219006E800E005C02E1000E115D0BE21C
:10160000010E176F000E186F11510008196F12C1EB
:101610001AF1000E1A5719C11BF11AC11CF113C19E
:101620001DF114C11EF103DF060E156F000E166FBB
:10163000000E006E1651005C02E11551000819E21F
:1016400015511325E16E16511421E26E010E155D40
:10165000006E000E1659016E00501325E96E015000
:101660001421EA6EEECFE6FF010E155F000E165B49
:10167000DFD713C1E1FF14C1E2FF200EE66E175160
:1016800018111AE0156B166B15511325E96E1651DA
:101690001421EA6EEE50200A03E1154B162BF4D705
:1016A000010E155F000E165B15511325E16E1651E4
:0A16B0001421E26E2D0EE66E12000A
:1016BA00130E01011B6F010E1C6F33DEABEC04F03D
:1016CA0016C111F1000E0101126F11C101F0006A79
:1016DA0000C011F101C012F117510012000E0112DF
:0A16EA0000C011F101C012F112005E
:1016F400130E01011B6F010E1C6FE7DDABEC04F050
:1017040016C111F1000E0101126F11C101F0006A3E
:1017140000C011F101C012F117510012000E0112A4
:0A17240000C011F101C012F1120023
:10172E0011C114F112C115F10D0E0001FF6F0A0E59
:10173E000101006F3AD014C11BF115C11CF141EC2F
:10174E0006F03ED014C1E9FF15C1EAFFEE520AE0E1
:10175E0014C11BF115C11CF141EC06F00101144B33
:10176E00152BF0D72DD014C1E9FF15C1EAFFEE52AB
:10177E000AE014C11BF115C11CF141EC06F0010188
:10178E00144B152BF0D70101FF0E1B6F000E1C6FB3
:10179E0041EC06F0000E01011B6F010E1C6F41ECB7
:1017AE0006F00ED0060E006E0CD001011351000A89
:1017BE00C2E01351010AC6E01351020AD4E0F2D777
:0417CE00006A12009B
:1017D20017C1CAF014C11BF115C11CF116C11DF1CC
:1017E20054EC06F011C11BF112C11CF113C11DF121
:0617F20053EC06F01200AA
:1017F800130E01011B6F010E1C6F94DDABEC04F09E
:1018080013C111F1000E0101126F11C101F0006A3C
:1018180000C011F101C012F114510012000E0112A2
:0A18280000C011F101C012F112001E
:101832000900F5CFE6FF0006FBE10106F9E112001F
:101842000101116BA70E126F1A0E136F000E146FA7
:1018520038DE100E0101116F800E126F250E136F0C
:0E186200000E146F156F55DE37EC05F0120006
:10187000330E0101116F1A0E126F000E136F930ECB
:10188000146F1A0E156F000E166F580E176FA1DF2A
:101890004B0E116F000E126F020E136F48DFACDF9C
:1018A00000C090F001C091F0680E116F000E126F31
:1018B000010E136F3CDF90C011F191C012F1940E34
:1018C0000101136F000E146F8BDE940E116F000E6A
:1018D000126F020E136F2BDFF0DE00C092F001C01A
:1018E00093F03E0E116F000E126F010E136F1FDF8B
:1018F00092C011F193C012F1940E0101136F000E0A
:10190000146F6EDE940E116F000E126F020E136FC5
:101910000EDF150E0101116F000E126F020E136F14
:0619200006DF33DE1200B9
:101926003FDE00C08CF001C08DF0250E116F000E59
:10193600126F010E136FF8DE8CC011F18DC012F11B
:10194600940E0101136F000E146F47DE940E116F93
:10195600000E126F020E136FE7DEC9DE00C08EF0B6
:1019660001C08FF0300E116F000E126F010E136F53
:10197600DBDE8EC011F18FC012F1940E0101136FE0
:10198600000E146F2ADE940E116F000E126F020EF7
:10199600136FCADE780E0101116F000E126F020E70
:0819A600136FC2DEEFDD120039
:0E19AE0056EC0DF047DF5DDFB7DFFED7FFD749
:101AAC0010EE15F0770E006E010E016EBC0EF66E88
:0E1ABC00190EF76E000EF86E19EC0CF0120009
:1019BC002D2D2D2D2D2D2D2D2D2D2D2D2D2D2D0078
:0B19CC0048322076616C75653A2000FF
:0E19D7004574684F482076616C75653A2000B3
:0D19E50054564F432076616C75653A200022
:1019F200416972205175616C697479203420696E75
:0D1A0200697469616C697A652E2E2E2E00C4
:0C1A0F00434F322076616C75653A200070
:041A1B0000000000C7
:101A1F002D2D2D2D2D2D2D2D2D2D2D2D2D2D2D0014
:041A2F0000000000B3
:101A330098013C018A013C015E013C0134013C01F7
:101A430026013C0150013C0142013C01A6013C013D
:101A530008023C01FA013C0124023C0116023C014C
:101A6300B2020000A80200008A0200009E020000E9
:101A7300E4030000DA030000D003000002040000C6
:101A8300F8030000EE030000A80300009E0300001B
:101A9300F0060000A20800004A080000E80436012E
:041AA30020043601E4
:041AA700A086010014
:020000040030CA
:0E00000015137F7CF98B91FFFFC0FFE0FF40DE
:00000001FF
